:100000000C945D000C9485000C9485000C94850084
:100010000C9485000C9485000C9485000C9485004C
:100020000C9485000C9485000C9485000C9485003C
:100030000C9485000C9485000C9485000C9485002C
:100040000C941C020C9485000C948C020C94660297
:100050000C9485000C9485000C9485000C9485000C
:100060000C9485000C94850000000008000201003B
:100070000003040700000000000000000000000072
:10008000250028002B0000000000240027002A0083
:10009000040404040404040402020202020203032E
:1000A0000303030301020408102040800102040836
:1000B0001020010204081020C80311241FBECFEF36
:1000C000D8E0DEBFCDBF11E0A0E0B1E0EAEFF7E09D
:1000D00002C005900D92A839B107D9F722E0A8E92E
:1000E000B1E001C01D92A634B207E1F710E0CDE502
:1000F000D0E004C02197FE010E94F503CC35D10762
:10010000C9F70E94BE020C94FB030C94000090E01F
:10011000FC01EC55FF4F249180579F4FFC018491C7
:10012000882399F090E0880F991FFC01EA57FF4F50
:10013000A591B491FC01E458FF4F859194918FB73C
:10014000F894EC91E22BEC938FBF089590E0FC01C2
:10015000E859FF4F2491FC01EC55FF4F3491FC010D
:10016000E057FF4FE491EE23C9F0222339F023300A
:1001700001F1A8F4213019F1223029F1F0E0EE0F5D
:10018000FF1FE458FF4FA591B4918FB7F894EC91FD
:10019000611126C030953E233C938FBF08952730D0
:1001A000A9F02830C9F0243049F7809180008F7D74
:1001B00003C0809180008F7780938000DFCF84B56B
:1001C0008F7784BDDBCF84B58F7DFBCF8091B0006E
:1001D0008F778093B000D2CF8091B0008F7DF9CF20
:1001E0003E2BDACFAF92BF92CF92DF92EF92FF9287
:1001F0000F931F93CF93DF936C017B018B01040F4F
:10020000151FEB015E01AE18BF08C017D10759F0EA
:100210006991D601ED91FC910190F081E02DC6012C
:100220000995892B79F7C501DF91CF911F910F9126
:10023000FF90EF90DF90CF90BF90AF900895FC01BA
:10024000538D448D252F30E0842F90E0821B930B3B
:10025000541710F0CF96089501970895FC01918DE1
:10026000828D981761F0A28DAE0FBF2FB11D5D96E4
:100270008C91928D9F5F9F73928F90E008958FEF86
:100280009FEF0895FC01918D828D981731F0828D3A
:10029000E80FF11D858D90E008958FEF9FEF089591
:1002A000FC01918D228D892F90E0805C9F4F821BF5
:1002B00091098F739927089589EA91E00E9450016E
:1002C00021E0892B09F420E0822F089580E090E05E
:1002D000892B29F00E945C0181110C940000089583
:1002E000FC01A48DA80FB92FB11DA35ABF4F2C91AB
:1002F000848D90E001968F739927848FA689B789A2
:100300002C93A089B1898C91837080648C93938D98
:10031000848D981306C00288F389E02D80818F7D3B
:1003200080830895EF92FF920F931F93CF93DF93F3
:10033000EC0181E0888F9B8D8C8D98131AC0E88921
:10034000F989808185FF15C09FB7F894EE89FF89F0
:100350006083E889F98980818370806480839FBF8E
:1003600081E090E0DF91CF911F910F91FF90EF908E
:100370000895F62E0B8D10E00F5F1F4F0F7311279E
:10038000E02E8C8D8E110CC00FB607FCFACFE889D9
:10039000F989808185FFF5CFCE010E947001F1CFF0
:1003A000EB8DEC0FFD2FF11DE35AFF4FF0829FB74D
:1003B000F8940B8FEA89FB8980818062CFCFCF933D
:1003C000DF93EC01888D8823B9F0AA89BB89E8897D
:1003D000F9898C9185FD03C0808186FD0DC00FB623
:1003E00007FCF7CF8C9185FFF2CF808185FFEDCFA1
:1003F000CE010E947001E9CFDF91CF910895CF9394
:10040000DF93FC0101900020E9F73197AF01481B11
:10041000590BBC0189EA91E00E94F200EC0142E034
:1004200050E062E171E089EA91E00E94F2008C0FF5
:100430009D1FDF91CF9108951F920F920FB60F92DB
:1004400011242F933F938F939F93AF93BF938091EA
:10045000A5019091A601A091A701B091A8013091AA
:10046000A40123E0230F2D3758F50196A11DB11DDE
:100470002093A4018093A5019093A601A093A701C6
:10048000B093A8018091A0019091A101A091A20137
:10049000B091A3010196A11DB11D8093A00190937D
:1004A000A101A093A201B093A301BF91AF919F912D
:1004B0008F913F912F910F900FBE0F901F90189525
:1004C00026E8230F0296A11DB11DD2CF1F920F92D5
:1004D0000FB60F9211242F933F934F935F936F9317
:1004E0007F938F939F93AF93BF93EF93FF9389EA8B
:1004F00091E00E947001FF91EF91BF91AF919F91A8
:100500008F917F916F915F914F913F912F910F90BC
:100510000FBE0F901F9018951F920F920FB60F925B
:1005200011242F938F939F93EF93FF93E091B90141
:10053000F091BA018081E091BF01F091C00182FD8C
:100540001BC090818091C2018F5F8F732091C30186
:10055000821741F0E091C201F0E0E755FE4F958F20
:100560008093C201FF91EF919F918F912F910F90F6
:100570000FBE0F901F9018958081F4CF789484B5AA
:10058000826084BD84B5816084BD85B5826085BD8F
:1005900085B5816085BD80916E00816080936E001D
:1005A000109281008091810082608093810080910F
:1005B00081008160809381008091800081608093C0
:1005C00080008091B10084608093B1008091B00080
:1005D00081608093B00080917A00846080937A007B
:1005E00080917A00826080937A0080917A008160A5
:1005F00080937A0080917A00806880937A001092CC
:10060000C100E091B901F091BA0182E08083E091EC
:10061000B501F091B6011082E091B701F091B801F7
:100620008FEC80831092C101E091BD01F091BE0179
:1006300086E08083E091BB01F091BC018081806104
:100640008083E091BB01F091BC0180818860808350
:10065000E091BB01F091BC01808180688083E091D2
:10066000BB01F091BC0180818F7D808384E00E947A
:10067000870085E00E94870086E00E94870087E06F
:100680000E94870060E084E00E94A60060E085E0B0
:100690000E94A60060E086E00E94A60060E087E07D
:1006A0000E94A60085E191E00E94FF01C1E000E008
:1006B00010E02FB7F8948091A5019091A601A09128
:1006C000A701B091A8012FBF40919C0150919D01BD
:1006D00060919E0170919F016C017D01C41AD50A41
:1006E000E60AF70AB701A60146345105610571050E
:1006F00080F080939C0190939D01A0939E01B09304
:100700009F0160919B016C2760939B0184E00E9494
:10071000A60089EA91E00E9450011816190694F487
:1007200089EA91E00E942E018136C1F460919A011C
:100730006C2760939A0185E00E94A60084E391E013
:100740000E94FF010115110509F4B3CF0E945C015D
:10075000882309F4AECF0E940000ABCF823659F453
:10076000609199016C276093990186E00E94A60030
:1007700085E591E0E5CF833629F7609198016C27F4
:100780006093980187E00E94A60086E791E0D8CFA9
:10079000E9EAF1E01382128288EE93E0A0E0B0E093
:1007A00084839583A683B78384E091E091838083DB
:1007B00085EC90E09587848784EC90E09787868726
:1007C00080EC90E0918B808B81EC90E0938B828B1E
:1007D00082EC90E0958B848B86EC90E0978B868BF7
:1007E000118E128E138E148E0895EE0FFF1F05903A
:0A07F000F491E02D0994F894FFCF76
:1007FA00000000009201F2001F01DF0150012E01EA
:10080A0042010D0A00554E4F20546573746F776587
:10081A00202D20476F746F776520646F2070726196
:10082A00637921004F74727A796D616E6F20276146
:10083A0027202D3E205A6D69616E61207374616EA6
:10084A0075204435004F74727A796D616E6F202776
:10085A006227202D3E205A6D69616E612073746192
:10086A006E75204436004F74727A796D616E6F200E
:10087A00276327202D3E205A6D69616E61207374AB
:08088A00616E75204437000087
:00000001FF
