:020000040000FA
:100000000C9462000C943B0B0C94140B0C948A001F
:100010000C948A000C948A000C948A000C948A0038
:100020000C948A000C948A000C948A000C94D90CCD
:100030000C948A000C94950D0C948A000C948A0000
:100040000C94CA0A0C948A000C94880B0C94620BD2
:100050000C948A000C948A000C948A000C948A00F8
:100060000C94BA0B0C948A000000000024002700B6
:100070002A0000000000250028002B0000000000DE
:1000800023002600290004040404040404040202DA
:100090000202020203030303030301020408102007
:1000A0004080010204081020010204081020000012
:1000B0000008000201000003040700000000000027
:1000C0000000BA0D11241FBECFEFD8E0DEBFCDBFB8
:1000D00011E0A0E0B1E0EEEFF5E302C005900D9273
:1000E000AC32B107D9F722E0ACE2B1E001C01D9219
:1000F000A23FB207E1F710E0C2E6D0E004C02197CA
:10010000FE010E94F71AC136D107C9F70E940C0EF2
:100110000C94FD1A0C940000833081F028F4813097
:1001200099F08230A9F008958730A9F08830C9F09D
:100130008430B1F4809180008F7D03C08091800075
:100140008F7780938000089584B58F7784BD08955C
:1001500084B58F7DFBCF8091B0008F778093B00006
:1001600008958091B0008F7DF9CFCF93DF93282F32
:1001700030E0F901E255FF4F8491F901E656FF4F57
:10018000D491F901EA57FF4FC491CC23A1F081111A
:100190000E948C00EC2FF0E0EE0FFF1FE458FF4FA1
:1001A000A591B491EC91ED2381E090E009F480E019
:1001B000DF91CF91089580E090E0FACF1F93CF9325
:1001C000DF93282F30E0F901E255FF4F8491F901C8
:1001D000E656FF4FD491F901EA57FF4FC491CC2363
:1001E000A9F0162F81110E948C00EC2FF0E0EE0F89
:1001F000FF1FEE58FF4FA591B4918FB7F894EC9183
:10020000111108C0D095DE23DC938FBFDF91CF9111
:100210001F910895DE2BF8CFCF93DF9390E0FC0180
:10022000E656FF4F24918A579F4FFC018491882303
:10023000D1F090E0880F991FFC01E859FF4FA5917C
:10024000B491FC01EE58FF4FC591D491623071F426
:100250009FB7F8943C91822F809583238C93E881FB
:100260002E2B28839FBFDF91CF9108958FB7F894ED
:10027000EC912E2B2C938FBFF6CF8E508064809301
:100280007C0080917A00806480937A0080917A006B
:1002900086FDFCCF809178009091790008953FB75A
:1002A000F8948091B8019091B901A091BA01B091F0
:1002B000BB0126B5A89B05C02F3F19F00196A11DD3
:1002C000B11D3FBFBA2FA92F982F8827BC01CD01A0
:1002D000620F711D811D911D42E0660F771F881FFF
:1002E000991F4A95D1F708958F929F92AF92BF922E
:1002F000CF92DF92EF92FF924B015C010E944F017F
:100300006B017C010E944F016C197D098E099F09C8
:10031000683E734081059105A8F321E0821A910897
:10032000A108B10888EEC80E83E0D81EE11CF11CBC
:1003300081149104A104B10429F7FF90EF90DF909C
:10034000CF90BF90AF909F908F9008952FB7F89463
:100350006091B4017091B5018091B6019091B7019F
:100360002FBF0895089508950895AF92BF92CF9238
:10037000DF92EF92FF920F931F93CF93DF936C0165
:100380007B018B01040F151FEB015E01AE18BF0846
:10039000C017D10759F06991D601ED91FC910190F8
:1003A000F081E02DC6010995892B79F7C501DF9110
:1003B000CF911F910F91FF90EF90DF90CF90BF9062
:1003C000AF900895FC01538D448D252F30E0842F8C
:1003D00090E0821B930B541710F0CF96089501976D
:1003E0000895FC01918D828D981761F0A28DAE0F5A
:1003F000BF2FB11D5D968C91928D9F5F9F73928FE1
:1004000090E008958FEF9FEF0895FC01918D828D0C
:10041000981731F0828DE80FF11D858D90E00895D9
:100420008FEF9FEF0895FC01918D228D892F90E031
:10043000805C9F4F821B91098F739927089582E3F7
:1004400092E00E94130221E0892B09F420E0822F20
:10045000089580E090E0892B29F00E941F0281110D
:100460000C9400000895FC01A48DA80FB92FB11DB4
:10047000A35ABF4F2C91848D90E001968F739927DA
:10048000848FA689B7892C93A089B1898C918370B8
:1004900080648C93938D848D981306C00288F389B1
:1004A000E02D80818F7D80830895EF92FF920F93DE
:1004B0001F93CF93DF93EC0181E0888F9B8D8C8D10
:1004C00098131AC0E889F989808185FF15C09FB704
:1004D000F894EE89FF896083E889F98980818370C7
:1004E000806480839FBF81E090E0DF91CF911F9176
:1004F0000F91FF90EF900895F62E0B8D10E00F5F97
:100500001F4F0F731127E02E8C8D8E110CC00FB66C
:1005100007FCFACFE889F989808185FFF5CFCE0104
:100520000E943302F1CFEB8DEC0FFD2FF11DE35A4A
:10053000FF4FF0829FB7F8940B8FEA89FB89808187
:100540008062CFCF682F82E392E00C945502CF9364
:10055000DF93EC01888D8823B9F0AA89BB89E889EB
:10056000F9898C9185FD03C0808186FD0DC00FB691
:1005700007FCF7CF8C9185FFF2CF808185FFEDCF0F
:10058000CE010E943302E9CFDF91CF9108952091EF
:100590007301260F3327331F21323105ECF42091EC
:1005A0000802FC0190E080E0243069F082E00895C8
:1005B000A09173012191AC014D5A5E4FA40FB52F4C
:1005C000B11D2C930196861798F380917301680FE3
:1005D0006093730180E0089581E00895109208020D
:1005E00081E0809307021092E20161E082E10E94C3
:1005F000DE0061E083E10E94DE00E9EBF0E0808153
:100600008E7F808380818D7F808388E48093B80093
:1006100085E48093BC000895CF93DF9391E090939D
:1006200052018823B9F0C091B800D091BA008091EE
:10063000BC008A7B8093BC0060E082E10E94DE0007
:1006400060E083E10E94DE000E94EE02D093BA00D7
:10065000C093B800DF91CF9108958F929F92AF928F
:10066000BF92CF92DF92EF92FF920F931F93CF939F
:10067000DF93D0913102D13208F0D7C0182FC0914A
:1006800030020E944F016B017C01809108028111B0
:100690006BC082E080930802109307028FEF809373
:1006A000060210920502D0930402A0E1B2E0E4EE4B
:1006B000F1E080E0D81391C01092E3018091E30152
:1006C000CC0FC82BC093E3018091E201813009F087
:1006D00088C01092E2010E944F016B017C01809161
:1006E000E3018093BB0080910A0290910B02A091DC
:1006F0000C02B0910D02892B8A2B8B2BA1F00E944A
:100700004F0100910A0210910B0220910C023091CE
:100710000D026C197D098E099F0906171707280716
:10072000390708F442C08091BC0083FDD8CF85EC26
:100730008093BC000E944F016B017C0180910802F4
:10074000823009F450C0809106028F3F09F46FC0D7
:1007500080910602803209F46CC0809106028033D9
:1007600009F469C084E026C080910A0290910B02CE
:10077000A0910C02B0910D02892B8A2B8B2B09F4CE
:1007800084CF0E944F0180900A0290900B02A090AB
:100790000C02B0900D026C197D098E099F09861616
:1007A0009706A806B90608F070CF809109020E944A
:1007B0000C0385E010920F021092310210920E028B
:1007C000DF91CF911F910F91FF90EF90DF90CF902D
:1007D000BF90AF909F908F9008959D9191938F5F60
:1007E00069CF85EEA5CF80910A0290910B02A0916E
:1007F0000C02B0910D02892B8A2B8B2B09F49ECF12
:100800000E944F0100910A0210910B0220910C02EC
:1008100030910D026C197D098E099F090617170783
:100820002807390708F08ACFC0CF81E0C3CF80E026
:10083000C1CF82E0BFCF83E0BDCF1F93CF93DF93C3
:10084000162FC4EED2E0A981BA819B8121E02093CA
:100850000E029093300210920F0210923102ED912D
:10086000FC9111970190F081E02D682FCD01099541
:1008700089819A81DC01ED91FC910190F081E02D5C
:10088000612F099581E00E942D038883DF91CF912C
:100890001F9108950F931F93CF93DF93162F072F68
:1008A000C4EED2E0A981BA819B8121E020930E029F
:1008B0009093300210920F0210923102ED91FC9150
:1008C00011970190F081E02D682FCD010995898164
:1008D0009A81DC01ED91FC910190F081E02D602F77
:1008E000099589819A81DC01ED91FC910190F0815B
:1008F000E02D612F099581E00E942D038883DF910F
:10090000CF911F910F910895CF92DF92EF92FF92B6
:100910000F931F93CF93DF93D82FC62F613208F028
:1009200098C00E944F016B017C01809108028111E7
:100930006BC081E080930802809307029FEF909341
:100940000602109205029C0F909304028093E3012B
:100950008091E301DD0FD82BD093E3018091E20178
:10096000813009F078C01092E2010E944F016B01C2
:100970007C018091E3018093BB0080910A029091F9
:100980000B02A0910C02B0910D02892B8A2B8B2BAC
:10099000A1F00E944F0100910A0210910B022091D8
:1009A0000C0230910D026C197D098E099F09061702
:1009B00017072807390708F448C08091BC0083FD59
:1009C000D8CF85EC8093BC000E944F016B017C0165
:1009D00080910802813009F440C0809105028C1793
:1009E00010F4C0910502E4EEF1E0A2ECB1E080E089
:1009F0008C1355C08C2FDF91CF911F910F91FF90D9
:100A0000EF90DF90CF90089580910A0290910B02B1
:100A1000A0910C02B0910D02892B8A2B8B2B09F42B
:100A200084CF0E944F0100910A0210910B02209185
:100A30000C0230910D026C197D098E099F09061771
:100A400017072807390708F070CF809109020E9424
:100A50000C03C0E0CFCF85EEB5CF80910A02909114
:100A60000B02A0910C02B0910D02892B8A2B8B2BCB
:100A700009F4AECF0E944F0100910A0210910B02BF
:100A800020910C0230910D026C197D098E099F098D
:100A9000061717072807390708F09ACFD6CF919184
:100AA0009D938F5FA5CF0895E091C1018091C00112
:100AB000E81730F4F0E0EE53FE4F808190E00895A7
:100AC0008FEF9FEF08959091C1018091C0012FEFAA
:100AD0003FEF981748F4E92FF0E0EE53FE4F2081E6
:100AE00030E09F5F9093C101C90108958091C001DA
:100AF0009091C101891B990B0895CF92DF92EF92DB
:100B0000FF920F931F93CF93DF937C01CB018A0158
:100B100020910E02222389F0EB016B01C40ED51E39
:100B2000CC15DD0569F06991D701ED91FC9101903B
:100B3000F081E02DC7010995F3CF642F0E94C70211
:100B4000C801DF91CF911F910F91FF90EF90DF903F
:100B5000CF900895CF93DF931F92CDB7DEB769830F
:100B600020910E022223F9F020913102203258F018
:100B700021E030E0FC013383228390E080E00F909D
:100B8000DF91CF91089580910F02E82FF0E0E05FB0
:100B9000FD4F998190838F5F80930F028093310284
:100BA00081E090E0ECCF61E0CE0101960E94C702A7
:100BB000F7CF90E080E008958F929F92AF92BF921E
:100BC000FF920F931F93CF93DF93FC01F0808BE094
:100BD0008F1508F44AC0828108E512E0081B11094C
:100BE00087FD1395000F111F000F111F8181C8E8A9
:100BF000D0E0C81BD10987FDD395CC0FDD1FCC0FEA
:100C0000DD1F4E010D2E000CAA08BB089801012E15
:100C1000000C440B550B281939094A095B09DB0103
:100C20000E94891924EB30E040E050E00E945F19F7
:100C3000820E931EA41EB51E8C169D062CF0E80194
:100C4000801691060CF4E4012297CC0FDD1F2FB71C
:100C5000F8948F2D90E0FC01EE0FFF1FE80FF91FB5
:100C6000E25DFE4FD283C1832FBFDF91CF911F91F1
:100C70000F91FF90BF90AF909F908F900895CF926B
:100C8000DF92EF92FF92CF93C82F70E060E088234D
:100C900011F069E370E081EE92E00E94DC0568EEFD
:100CA00073E080E090E00E9474018EE00E943D01BC
:100CB000BC01990F880B990B0E94C91920E030E004
:100CC00040EA5BE30E942D1A6B017C01C11145C013
:100CD00026E636E646EE5EE30E94281A1816B4F4BD
:100CE0002AE939E949E15FE3C701B6010E94C21967
:100CF00087FF0CC081E60E94A202C092BC01D09284
:100D0000BD01E092BE01F092BF0120C081E40E94CB
:100D1000A20269E370E081EE92E00E94DC0561E0EE
:100D200084E00E94DE0068EE73E080E090E00E94C4
:100D3000740160E084E00E94DE00C092BC01D092A9
:100D4000BD01E092BE01F092BF01C1E08C2FCF91B6
:100D5000FF90EF90DF90CF90089520E030E040E8E2
:100D60005FE30E94281A181664F426E636E646EA7F
:100D70005FE3C701B6010E94C21987FF02C081E488
:100D8000BACF81E60E94A20270E060E081EE92E0BC
:100D90000E94DC0561E084E00E94DE0068EE73E002
:100DA00080E090E00E94740160E084E00E94DE0038
:100DB000C092BC01D092BD01E092BE01F092BF0191
:100DC000C0E0C4CFCF92DF92EF92FF92CF93C82FB3
:100DD00070E060E0882311F069E370E08EED92E04E
:100DE0000E94DC0568EE73E080E090E00E947401F0
:100DF0008FE00E943D01BC01990F880B990B0E9466
:100E0000C91920E030E040EA5BE30E942D1A6B0133
:100E10007C01C11145C026E636E646EE5EE30E943F
:100E2000281A1816B4F42AE939E949E15FE3C70141
:100E3000B6010E94C21987FF0CC085E60E94A2027B
:100E4000C092BC01D092BD01E092BE01F092BF0100
:100E500020C085E40E94A20269E370E08EED92E07A
:100E60000E94DC0561E084E00E94DE0068EE73E031
:100E700080E090E00E94740160E084E00E94DE0067
:100E8000C092BC01D092BD01E092BE01F092BF01C0
:100E9000C1E08C2FCF91FF90EF90DF90CF9008951D
:100EA00020E030E040E85FE30E94281A181664F45E
:100EB00026E636E646EA5FE3C701B6010E94C2199C
:100EC00087FF02C085E4BACF85E60E94A20270E0E7
:100ED00060E08EED92E00E94DC0561E084E00E941B
:100EE000DE0068EE73E080E090E00E94740160E054
:100EF00084E00E94DE00C092BC01D092BD01E0926D
:100F0000BE01F092BF01C0E0C4CFCF92DF92EF925A
:100F1000FF92CF93C82F70E060E0882311F069E35F
:100F200070E08BED92E00E94DC0568EE73E080E0FB
:100F300090E00E94740180E10E943D01BC01990F84
:100F4000880B990B0E94C91920E030E040EA5BE36E
:100F50000E942D1A6B017C01C11145C026E636E6C0
:100F600046EE5EE30E94281A1816B4F42AE939E91D
:100F700049E15FE3C701B6010E94C21987FF0CC0B7
:100F800089E60E94A202C092BC01D092BD01E0920B
:100F9000BE01F092BF0120C089E40E94A20269E371
:100FA00070E08BED92E00E94DC0561E084E00E943D
:100FB000DE0068EE73E080E090E00E94740160E083
:100FC00084E00E94DE00C092BC01D092BD01E0929C
:100FD000BE01F092BF01C1E08C2FCF91FF90EF9046
:100FE000DF90CF90089520E030E040E85FE30E947A
:100FF000281A181664F426E636E646EA5FE3C701C7
:10100000B6010E94C21987FF02C089E4BACF89E6FF
:101010000E94A20270E060E08BED92E00E94DC058D
:1010200061E084E00E94DE0068EE73E080E090E022
:101030000E94740160E084E00E94DE00C092BC0166
:10104000D092BD01E092BE01F092BF01C0E0C4CFDA
:101050001F93CF93DF93EC01162F88818C3008F01B
:101060004EC061E0812F0E940C018881282F30E062
:10107000F901EE0FFF1FE20FF31FE25DFE4F1F733A
:101080006081607C612B608319821A822CE0622F60
:101090000E94EB1A829FB001112430E020E0AB01E6
:1010A000420F531FFA01EE0FFF1FE40FF51FE25D21
:1010B000FE4F908196FD16C02F5F3F4F2C303105BB
:1010C00071F781110FC01092800082E0809381003F
:1010D0001092850010928400B19A80916F00826016
:1010E00080936F00E8818E2F90E0FC01EE0FFF1FD0
:1010F000E80FF91FE25DFE4F808180648083888164
:10110000DF91CF911F9108950895CF938091B00101
:10111000813071F48091AF018F5F8093AF01809136
:10112000AF01833028F01092AF0182E08093B001CC
:101130008091B001843071F48091AF018F5F809312
:10114000AF018091AF01833028F01092AF0185E0AC
:101150008093B0018091B001873021F08091B0017F
:10116000843151F58091AF018F5F8093AF01C091C1
:10117000AF01C13031F461E087E00E94DE00C0932E
:10118000A6018091AF01823039F461E086E00E94CF
:10119000DE0081E08093A3018091AF01833061F490
:1011A00061E085E00E94DE0081E08093A001109262
:1011B000AF0188E08093B001CF9108950F931F9302
:1011C000CF93DF93C4EED2E0A981BA819B8121E065
:1011D00020930E029093300210920F02109231026F
:1011E000ED91FC9111970190F081E02D682FCD01D8
:1011F000099581E00E942D03888362E08B810E9423
:1012000084041092C1018093C00189819A81DC011C
:10121000ED91FC910284F385E02D099500E0182FF3
:1012200089819A81DC01ED91FC910284F385E02DA6
:101230000995802B912BDF91CF911F910F910895EC
:10124000CF93DF93C4EED2E0A981BA819B8121E0E4
:1012500020930E029093300210920F0210923102EE
:10126000ED91FC9111970190F081E02D682FCD0157
:10127000099581E00E942D03888361E08B810E94A3
:1012800084041092C1018093C00189819A81DC019C
:10129000ED91FC910284F385E02D0995DF91CF91CA
:1012A0000895CF93DF93EC0181E00E94200984FB35
:1012B000992790F9988383FB992790F99A8382FB69
:1012C000992790F9998386FB992790F99B83881F2A
:1012D0008827881F8C83DF91CF910895682F6160E4
:1012E00080E00E941D040E94A6017093EC026093AE
:1012F000EB0283E10E9420098770B9F48091E80233
:101300009091E902892BA9F30E94A6012091EB029A
:101310003091EC02621B730B8091E8029091E9021C
:101320008617970730F780E0089561E08BE00E9410
:101330001D0460E080E00E941D0481E00895CF93C9
:10134000DF930E94A6017093EC026093EB0283E1AD
:101350000E9420098770F1F48091E8029091E902DF
:10136000892BA9F30E94A6012091EB023091EC0297
:10137000621B730B8091E8029091E9028617970730
:1013800030F781E08093EA02CFEFDFEFCE01DF910B
:10139000CF9108958EE10E94DE08EC0161E08BE0C0
:1013A0000E941D04F3CF8F929F92AF92BF92EF9253
:1013B000FF920F931F93CF93DF937C01EB0180E5A6
:1013C0000E9420098F5F880F90E09983888386E4CC
:1013D0000E942009082F10E00F5F1F4F1D830C8310
:1013E000A881B0E020E03FE24AE350E00E947E198D
:1013F0006C507E4F8F4F9F4F38EE832E33E0932EED
:10140000A12CB12CA50194010E949119D8010E9430
:1014100089196C507E4F8F4F9F4FA50194010E94F8
:1014200091192A873B874C875D8781E50E94DE08FA
:101430008C01112702C0000F111F9A95E2F70F5F70
:101440001F4F1F830E83A881B0E020E03FE24AE3F4
:1014500050E00E947E196C507E4F8F4F9F4FA50128
:1014600094010E949119D8010E947E196C507E4F00
:101470008F4F9F4FA50194010E9491192E873F879E
:10148000488B598B80E70E9420098F5F880F90E07E
:101490009B838A8381E70E94DE089C01992702C012
:1014A000880F991F3A95E2F7019699878887F70187
:1014B0002381222331F02E813F81821B930B998758
:1014C0008887AA81B0E020E03FE24AE350E00E9432
:1014D0007E196C507E4F8F4F9F4F28EE822E23E057
:1014E000922EA12CB12CA50194010E949119A885DE
:1014F000B9850E947E196C507E4F8F4F9F4FA5017A
:1015000094010E9491192A8B3B8B4C8B5D8BDF9150
:10151000CF911F910F91FF90EF90BF90AF909F9050
:101520008F90089585ED8093BC0080910A02909180
:101530000B02A0910C02B0910D020796A11DB11DE6
:1015400023E0B695A795979587952A95D1F7209191
:10155000BC0024FD03C010920802089540910A02C5
:1015600050910B0260910C0270910D02452B462B9D
:10157000472B69F30097A105B10541F02AE22A95AE
:10158000F1F700C00197A109B109E1CF80910902EB
:101590000C940C031F920F920FB60F9211242F93ED
:1015A0003F938F939F93AF93BF938091B40190919A
:1015B000B501A091B601B091B7013091B30123E01C
:1015C000230F2D3758F50196A11DB11D2093B301AE
:1015D0008093B4019093B501A093B601B093B70185
:1015E0008091B8019091B901A091BA01B091BB016D
:1015F0000196A11DB11D8093B8019093B901A093EC
:10160000BA01B093BB01BF91AF919F918F913F9170
:101610002F910F900FBE0F901F90189526E8230F63
:101620000296A11DB11DD2CF1F920F920FB60F923D
:1016300011242F933F934F935F936F937F938F93D7
:101640009F93AF93BF93EF93FF93E0910201F091CB
:1016500003010995FF91EF91BF91AF919F918F91F8
:101660007F916F915F914F913F912F910F900FBE9E
:101670000F901F9018951F920F920FB60F92112482
:101680002F933F934F935F936F937F938F939F938A
:10169000AF93BF93EF93FF93E0910001F0910101AD
:1016A0000995FF91EF91BF91AF919F918F917F919C
:1016B0006F915F914F913F912F910F900FBE0F90BF
:1016C0001F9018951F920F920FB60F9211242F930F
:1016D0003F934F935F936F937F938F939F93AF93BA
:1016E000BF93EF93FF9382E392E00E943302FF9156
:1016F000EF91BF91AF919F918F917F916F915F918A
:101700004F913F912F910F900FBE0F901F90189502
:101710001F920F920FB60F9211242F938F939F93C6
:10172000EF93FF93E0914202F09143028081E091B8
:101730004802F091490282FD1BC0908180914B02CA
:101740008F5F8F7320914C02821741F0E0914B0222
:10175000F0E0EE5CFD4F958F80934B02FF91EF918F
:101760009F918F912F910F900FBE0F901F90189502
:101770008081F4CF1F920F920FB60F9211242F93F6
:101780003F934F935F936F937F938F939F93AF9309
:10179000BF93EF93FF938091B900887F803609F45F
:1017A0004AC0F0F5883209F4A7C018F5803109F471
:1017B0009BC0B8F4882309F4F9C0883009F494C0B8
:1017C000FF91EF91BF91AF919F918F917F916F9119
:1017D0005F914F913F912F910F900FBE0F901F90EF
:1017E0001895883109F488C0803251F78093060239
:1017F00014C0803409F49DC040F48033B9F38833B9
:10180000F9F68093060285ECB0C0803509F485C0F6
:10181000883509F496C0883499F60E94920AD0CF90
:10182000883909F48CC038F5883729F050F48836A7
:1018300011F0803729F683E0809308021092950119
:1018400057C0883809F47BC0803919F0803809F016
:10185000B7CF80919501803208F071C0E091950179
:1018600081E08E0F809395018091BB00F0E0EB58F2
:10187000FE4F80833DC0803B39F0E0F4803A09F4AC
:1018800079C0883A09F09CCF84E0809308021092D6
:10189000740110927301E0919801F09199010995FA
:1018A0008091730181110FC081E0809373011092C8
:1018B000530109C0803C09F4A6CF883C09F4A3CFAA
:1018C000883B09F07DCFE091740181E08E0F809319
:1018D0007401F0E0ED5AFE4F80818093BB0090913F
:1018E00074018091730129C08091E3018093BB0052
:1018F00085EC8093BC0064CF909105028091040236
:10190000981758F5E091050281E08E0F809305024B
:10191000F0E0EC51FE4F8081E9CFE091050281E0DB
:101920008E0F809305028091BB00F0E0EC51FE4FDA
:10193000808390910502809104029817C8F285E88F
:10194000D8CFE091050281E08E0F8093050280914F
:10195000BB00F0E0EC51FE4F8083809107028111C3
:101960005CCF81E08093E20184EA8093BC00109216
:10197000080226CF85EC8093BC001092080280916B
:101980009501803230F4E0919501F0E0EB58FE4F84
:1019900010826091950170E0E0919601F0919701BD
:1019A00085E791E00995109295010ACF1092060201
:1019B00034CF1F920F920FB60F9211242F933F93A3
:1019C0004F935F936F937F938F939F93AF93BF9347
:1019D000CF93DF93EF93FF9380912C01C0912D0162
:1019E000D0E087FF24C0109285001092840080917F
:1019F0002C018F5F80932C0180912C01082E000C0C
:101A0000990B8C179D0724F480912C018C30C4F124
:101A10008091840090918500049680349C4908F45C
:101A20007AC08091840090918500049676C0809160
:101A30002C01082E000C990B8C179D07C4F6E09121
:101A40002C018E2FEE0F990BFC01EE0FFF1FE80FFC
:101A5000F91FE25DFE4F808186FFC9CFE0912C0126
:101A60008E2FEE0F990BFC01EE0FFF1FE80FF91FF1
:101A7000E25DFE4F808160E08F730E94DE00B7CF91
:101A80002091840030918500E0912C018E2FEE0F83
:101A9000990BFC01EE0FFF1FE80FF91FE25DFE4FEF
:101AA00081819281820F931F909389008093880097
:101AB000E0912C018E2FEE0F990BFC01EE0FFF1F12
:101AC000E80FF91FE25DFE4F808186FF11C0E091B3
:101AD0002C018E2FEE0F990BFC01EE0FFF1FE80F6C
:101AE000F91FE25DFE4F808161E08F730E94DE008E
:101AF000FF91EF91DF91CF91BF91AF919F918F9126
:101B00007F916F915F914F913F912F910F900FBEF9
:101B10000F901F90189580E49CE990938900809322
:101B200088008FEF80932C01E3CF1F920F920FB6A6
:101B30000F9211240F900FBE0F901F901895FC016B
:101B400090912D019C3098F481E0890F80932D01B4
:101B50009083892F90E0FC01EE0FFF1FE80FF91F23
:101B6000E25DFE4F88EB9BE09283818308958FEFC7
:101B700080830895E2E3F2E01382128248EE53E09C
:101B800060E070E044835583668377838CE091E066
:101B90009183808385EC90E09587848784EC90E046
:101BA0009787868780EC90E0918B808B81EC90E02A
:101BB000938B828B82EC90E0958B848B86EC90E00B
:101BC000978B868B118E128E138E148EAFECB2E033
:101BD00013961C921E92129714964D935D936D93DB
:101BE0007C9317978EE191E011969C938E93E4EE8F
:101BF000F2E0B283A18389E2838315821482168284
:101C000081EE92E00E949F0D8EED92E00E949F0D6A
:101C10008BED92E00C949F0DCF93DF93CDB7DEB7A1
:101C2000A1970FB6F894DEBF0FBECDBF789484B5F0
:101C3000826084BD84B5816084BD85B5826085BDC8
:101C400085B5816085BD80916E00816080936E0056
:101C50001092810080918100826080938100809148
:101C600081008160809381008091800081608093F9
:101C700080008091B10084608093B1008091B000B9
:101C800081608093B00080917A00846080937A00B4
:101C900080917A00826080937A0080917A008160DE
:101CA00080937A0080917A00806880937A00109205
:101CB000C10068E070E081EE92E00E94280869E0CF
:101CC00070E08EED92E00E9428086AE070E08BEDF3
:101CD00092E00E94280861E087E00E940C0161E028
:101CE00086E00E940C0161E085E00E940C0161E049
:101CF00084E00E940C0162E08BE00E940C0162E033
:101D00008CE00E940C0162E08DE00E940C0162E018
:101D100081E10E940C0161E083E00E940C0162E01D
:101D200082E00E940C0160E087E00E94DE0060E03B
:101D300086E00E94DE0060E085E00E94DE0060E058
:101D400084E00E94DE0061E083E00E94DE0085E81E
:101D500098E09093010180930001809169008C7F4D
:101D6000826080936900E89A1092C1011092C001CC
:101D700010920F02109231020E94EE0282EB91E06B
:101D8000909399018093980183EB91E09093970150
:101D90008093960180EC0E9420098E3E09F086C057
:101DA00089E80E942009682F616089E80E941D046B
:101DB00060E088E80E941D0461E080E80E941D0444
:101DC00061E08FEF0E941D0460E080E00E941D042E
:101DD00081E90E9420098093ED0261E080E00E9489
:101DE0001D0460E08FEF0E941D0460E080E80E9407
:101DF0001D0480E60E942009682F626180E60E942F
:101E00001D0460E270E084E40E944A046FEF81E008
:101E10000E941D0461E080E80E941D0461E08FEFD4
:101E20000E941D0460E080E00E941D0466E08FEFC8
:101E30000E941D0483E80E942009682F646083E8E3
:101E40000E941D0467E08FEF0E941D0461E081E89D
:101E50000E941D0461E080E80E941D046BE684E995
:101E60000E941D0460E083E80E941D040E94A601F8
:101E70007093EC026093EB0283E80E9420098111C9
:101E800067C18091E8029091E902892BA9F30E9431
:101E9000A6012091EB023091EC02621B730B809142
:101EA000E8029091E9028617970730F784EF91E0F6
:101EB0009093E9028093E80261E080E80E941D04AB
:101EC00061E08FEF0E941D0460E080E00E941D042D
:101ED0006091ED0281E90E941D0461E080E00E94B2
:101EE0001D0460E08FEF0E941D0460E080E80E9406
:101EF0001D0462E080E00E941D04E0914202F09126
:101F0000430282E08083E0913E02F0913F02108222
:101F1000E0914002F091410287E6808310924A02EC
:101F2000E0914602F091470286E08083E09144020E
:101F3000F0914502808180618083E0914402F091BC
:101F40004502808188608083E0914402F0914502DF
:101F5000808180688083E0914402F0914502808115
:101F60008F7D808368E873E180E090E00E947401D7
:101F70008DE60E94A2028EE60E94A2028FE60E94D7
:101F8000A20282E60E94A20286E60E94A2028AE6DD
:101F90000E94A20270E060E081EE92E00E94DC0507
:101FA00070E060E08EED92E00E94DC0570E060E0A1
:101FB0008BED92E00E94DC0560ED77E080E090E040
:101FC0000E94740181E00E943F068130A1F084E606
:101FD0000E94A2020BE010E068EC70E080E090E06C
:101FE0000E94740168EC70E080E090E00E9474014F
:101FF0000150110989F781E00E94E2068130A1F0C9
:1020000088E60E94A2020BE010E068EC70E080E03D
:1020100090E00E94740168EC70E080E090E00E9423
:1020200074010150110989F781E00E948507813010
:10203000A1F08CE60E94A2020BE010E068EC70E0D8
:1020400080E090E00E94740168EC70E080E090E035
:102050000E9474010150110989F780E00E943F0637
:102060008130A1F484E60E94A2020BE010E068EC4B
:1020700070E080E090E00E94740168EC70E080E025
:1020800090E00E9474010150110989F780E00E94DC
:10209000E2068130A1F488E60E94A2020BE010E083
:1020A00068EC70E080E090E00E94740168EC70E001
:1020B00080E090E00E9474010150110989F780E0EE
:1020C0000E9485078130A1F48CE60E94A2020BE0F9
:1020D00010E068EC70E080E090E00E94740168EC31
:1020E00070E080E090E00E9474010150110989F7CE
:1020F0008BE00E94B500892B09F0A5C38BE00E94FC
:10210000B500892B19F488E70E94A2028CE00E9496
:10211000B500892B19F489E70E94A2028DE00E9484
:10212000B500892B19F48AE70E94A20209E010E0A9
:1021300068EE73E080E090E00E94740168EE73E066
:1021400080E090E00E9474010150110989F787C373
:1021500061E083E80E941D0482E90E942009182F93
:102160001F77D82EDD1CDD24DD1C60E081E80E9495
:102170001D0466E08FEF0E941D0483E80E94200981
:10218000682F6B7F83E80E941D0461E08FEF0E943F
:102190001D0461E080E00E941D0460E08FEF0E945A
:1021A0001D0460E080E80E941D048091E50290918A
:1021B000E6022091E70231E030930E0220933002D4
:1021C00010920F0210923102DC01ED91FC9101900E
:1021D000F081E02D60EB099581E00E942D03809352
:1021E000E40266E08091E7020E9484041092C1013B
:1021F0008093C0017E01B7E1EB0EF11C570107E0AF
:10220000015079F08091E5029091E602DC01ED91B8
:10221000FC910284F385E02D0995F50181935F011E
:10222000EFCF61E08FEF0E941D0460E08FE40E9419
:102230001D046CE28EE40E941D0460E08FEF0E949A
:102240001D0464EB86EB0E941D040CE0D11001C05C
:1022500000E090E080E0E1E0F0E0482F4695469510
:10226000469550E09701240F351FD9012C91682F16
:102270006770801710F0911339C04E0D5F1DDF019C
:1022800002C0AA0FBB1F6A95E2F7BD016095262325
:10229000DA012C938F5F803301F78091E5029091F2
:1022A000E6022091E70231E030930E0220933002E3
:1022B00010920F0210923102DC01ED91FC9101901D
:1022C000F081E02D60EB099517E01150C9F0809185
:1022D000E5029091E602F70161917F01DC01ED9149
:1022E000FC910190F081E02D0995EFCF30E002C024
:1022F000359527956A95E2F720FFCCCF9F5FCACF2F
:1023000081E00E942D038093E40261E08FEF0E9440
:102310001D0460E080E00E941D0460E08FEF0E94D9
:102320001D0460E089E00E941D0460E080E10E94DD
:102330001D0460E081E10E941D0461E084E20E94CE
:102340001D046FEF85E20E941D0460E085E70E9496
:102350001D0461E08FEF0E941D046CE28EE40E9478
:102360001D0460E088E40E941D0460E280E30E9496
:102370001D0460E08FEF0E941D0469E080E30E946D
:102380001D0460E084E50E941D0464E081E30E9476
:102390001D0463E082E30E941D0463E880E40E9460
:1023A0001D0465E286E40E941D0460E080E60E9450
:1023B0001D0460E087E20E941D0466E080E50E9443
:1023C0001D0460E081E50E941D0466E982E50E942B
:1023D0001D0468E086E50E941D0460E387E50E9415
:1023E0001D0460E081E60E941D0460E082E60E9418
:1023F0001D0460E084E60E941D0460E085E60E9402
:102400001D0460EA86E60E941D0461E08FEF0E94D1
:102410001D0462E382E20E941D0464E187E40E94DD
:102420001D046FEF89E40E941D0460E08AE40E94AD
:102430001D0460E08FEF0E941D046AE08AE70E949D
:102440001D0460E08BE70E941D0461E288E70E94A2
:102450001D0461E08FEF0E941D0464E383E20E948B
:102460001D0460E082E40E941D046FEF84E40E947A
:102470001D0466E285E40E941D0465E086E40E9476
:102480001D0460E480E40E941D0466E08EE00E946A
:102490001D046AE180E20E941D0460E483E40E945E
:1024A0001D0460E08FEF0E941D0463E084E30E943E
:1024B0001D0464E485E30E941D0461E08FEF0E9427
:1024C0001D0464E081E30E941D0469E08BE40E9426
:1024D0001D0465E08CE40E941D0464E08DE40E940C
:1024E0001D0460E08FEF0E941D0460E084E40E9400
:1024F0001D0460E285E40E941D0468E087E40E94F8
:102500001D0468E288E40E941D0460E087E60E94E2
:102510001D0464E080E70E941D0461E081E70E94E1
:102520001D046EEF82E70E941D0460E086E70E94B2
:102530001D0460E087E70E941D0461E08FEF0E94A8
:102540001D0461E08DE00E941D0460E08FEF0E9499
:102550001D0461E080E80E941D0468EF81E00E9494
:102560001D0461E08FEF0E941D0461E08EE80E946F
:102570001D0461E080E00E941D0460E08FEF0E9476
:102580001D0460E080E80E941D0464E08AE00E946F
:102590001D0484E80E942009682F6F7E84E80E9451
:1025A0001D0461E08BE00E941D04CE014D960E9447
:1025B0005109BE016F5F7F4FCE014D960E94D30936
:1025C0008D8D882309F4F3C08B859C85AD85BE85F0
:1025D0008C57924FAF4FBF4F2F8D222309F4ECC081
:1025E0004B855C856D857E854E545D4F6F4F7F4F6B
:1025F000440F551F661F771F840F951FA61FB71F17
:1026000028A1222361F04F85588969897A894C561F
:102610005D4F6F4F7F4F840F951FA61FB71F29A1D6
:10262000222361F04B895C896D897E894A5D5D4F0B
:102630006F4F7F4F840F951FA61FB71F8093EE0229
:102640009093EF02A093F002B093F10268EE81E064
:102650000E941D04C090EE02D090EF02E090F002C4
:10266000F090F102CE014D960E945109BE016F5FBC
:102670007F4FCE014D960E94D3098D8D882309F49A
:10268000A8C08B859C85AD85BE858C57924FAF4F7A
:10269000BF4F2F8D222309F4A1C04B855C856D852A
:1026A0007E854E545D4F6F4F7F4F440F551F661F01
:1026B000771F840F951FA61FB71F18A1112361F064
:1026C0004F85588969897A894C565D4F6F4F7F4F86
:1026D000840F951FA61FB71F29A1222309F49AC0B2
:1026E0002C013D01E6E24E0EE2E05E1E611C711C13
:1026F000C414D504E604F70408F48CC0AB81B0E040
:1027000020E03FE24AE350E00E947E194B015C0169
:10271000F4EF8F0EF1E09F1EA11CB11CA7019601E2
:102720002419350946095709A8EEB3E00E947E191D
:102730002B013C01C501B40120ED37E040E050E041
:102740000E949119420E531E641E751EC501B401EC
:1027500028EE33E040E050E00E949119C301B2013D
:102760000E949119112331F08F819885280F391F0C
:10277000411D511D70E060E02115310541055105F5
:10278000F1F189019A01015011092109310970E023
:1027900060E0D901C8018827892B8A2B8B2B59F13E
:1027A00036952795179507956F5F7F4FF2CF86E394
:1027B0009BE0A0E0B0E010CF2E8D222309F420CFC3
:1027C0004B855C856D857E854C565D4F6F4F7F4F89
:1027D00013CF86E39BE0A0E0B0E05BCF2E8D2223F9
:1027E00009F46BCF4B855C856D857E854C565D4FBE
:1027F0006F4F7F4F5ECF762F6627602B712B81E75F
:102800000E944A04C092EE02D092EF02E092F002DF
:10281000F092F10261E081E00E941D0480E40E94D8
:102820006E09882309F442CB62E081E00E941D0416
:1028300080E00E946E09882309F438CB68EE81E0BD
:102840000E941D0433CB8CE00E94B500892B09F453
:1028500055CC8DE00E94B500892B09F44FCC81E066
:102860008093070168EC70E080E090E00E947401C2
:102870000E949F0986329240ACF781E00E94850752
:10288000811105C08091070183300CF448C068EEC7
:1028900073E080E090E00E94740181E08093060183
:1028A00080E00E948507813029F480910601833001
:1028B0000CF44BC068EE73E080E090E00E9474017D
:1028C0001092B2011092B10111E032E0E32EF12C2E
:1028D000CC24C394D12C54E1852E62E0762E75E091
:1028E000672E88E0A82E04E096E0B92E23E0922E11
:1028F00082E392E00E941302181619060CF05AC0E7
:1029000082E392E00E94F1019091B1019111F0CF28
:102910008C3389F5D0929C01C0929B01E9CF8F5FE7
:102920008093070168EE73E080E090E00E947401FC
:1029300068EE73E080E090E00E94740168EE73E05E
:1029400080E090E00E94740198CF8F5F8093060131
:1029500068EE73E080E090E00E94740168EE73E03E
:1029600080E090E00E94740168EE73E080E090E007
:102970000E94740195CF20919B0130919C012130E0
:10298000310539F480939A01F0929C01E0929B0109
:10299000AFCF2230310509F0ABCF8E3331F48091C7
:1029A0009A018093B2011093B10110929C01109290
:1029B0009B019ECF81E10E94B500892B91F56CE2CD
:1029C00071E080E090E00E94740181E10E94B50016
:1029D000892B39F56CE271E080E090E00E9474018F
:1029E00081E10E94B500892BE1F41093050180E09C
:1029F0000E94E206813029F48091050183300CF4B5
:102A0000C4C01093050180E00E943F06813029F484
:102A10008091050183300CF4CEC08092B0011092F9
:102A2000AF018091AE01811120C08BE00E94B50002
:102A3000892BD9F464EF71E080E090E00E9474018A
:102A40008BE00E94B500892B81F464EF71E080E097
:102A500090E00E9474018BE00E94B500892B11F474
:102A60001093AE018DE40E94A2028091AD0181110C
:102A700020C08CE00E94B500892BD9F464EF71E08E
:102A800080E090E00E9474018CE00E94B500892BE8
:102A900081F464EF71E080E090E00E9474018CE0CA
:102AA0000E94B500892B11F41093AD018EE40E94B1
:102AB000A2028091AC01811120C08DE00E94B5007E
:102AC000892BD9F464EF71E080E090E00E947401FA
:102AD0008DE00E94B500892B81F464EF71E080E005
:102AE00090E00E9474018DE00E94B500892B11F4E2
:102AF0001093AC018FE40E94A2028091B201813652
:102B000041F41092B2011092B1017092B001109391
:102B1000AB018091B201823641F41092B201109261
:102B2000B1016092B0011093AA018091B201833685
:102B300031F41092B2011092B101A092B0018091D3
:102B4000B201843621F41092B2011092B101909139
:102B5000AE01913009F045C08091AD01813009F09E
:102B600054C39091B001911102C08093B001809143
:102B7000B001833011F40093B0018091B001803135
:102B800009F04BC31093B00148C38F5F80930501D8
:102B900068EE73E080E090E00E94740168EE73E0FC
:102BA00080E090E00E94740168EE73E080E090E0C5
:102BB0000E9474011CCF8F5F8093050168EE73E063
:102BC00080E090E00E94740168EE73E080E090E0A5
:102BD0000E94740168EE73E080E090E00E9474014E
:102BE00012CF91111AC38091AD01813009F015C344
:102BF0008091AA01811111C30093B0010EC38F5FB0
:102C00008093040168EE73E080E090E00E9474011C
:102C100068EE73E080E090E00E94740168EE73E07B
:102C200080E090E00E9474010DC38091A801909112
:102C3000A90101969093A9018093A80111C38091E5
:102C4000B001823089F583E60E94A2021092A901A8
:102C50001092A8011093040180E00E943F06813089
:102C600021F48091040183303CF08091A7018823F6
:102C7000C9F0B092B00118C08F5F8093040168EE74
:102C800073E080E090E00E94740168EE73E080E001
:102C900090E00E94740168EE73E080E090E00E9492
:102CA0007401DACF9092B0018091B001843009F0C4
:102CB0006AC01093AA0164E670E080E090E00E9490
:102CC00074010E949F09863292400CF052C010930A
:102CD000040181E00E94E206811104C08091040198
:102CE00083308CF11092A9011092A8018091A80163
:102CF0009091A9018C38910509F045C01092A90165
:102D00001092A8011093040180E00E94E206813035
:102D1000D1F5809104018330B4F58F5F8093040175
:102D200068EE73E080E090E00E94740168EE73E06A
:102D300080E090E00E94740168EE73E080E090E033
:102D40000E947401E1CF8F5F8093040168EE73E00D
:102D500080E090E00E94740168EE73E080E090E013
:102D60000E94740168EE73E080E090E00E947401BC
:102D7000B0CF8091A8019091A90101969093A901EB
:102D80008093A801B3CF8091B0018530D1F487E65C
:102D90000E94A2021092A9011092A80110930401AE
:102DA00080E00E94E206813029F4809104018330A2
:102DB0000CF462C08091AB01813009F073C0B09215
:102DC000B0018091B001863039F48091AC0181303E
:102DD00019F487E08093B0018091B001873009F049
:102DE000E1C064E670E080E090E00E9474010E941F
:102DF0009F09863292400CF071C01093040181E06B
:102E00000E948507811105C08091040183300CF474
:102E10004FC01092A9011092A8018091A801909131
:102E2000A9018C38910509F063C01092A901109294
:102E3000A8011093040180E00E948507813009F009
:102E400057C08091040183300CF052C08F5F809393
:102E5000040168EE73E080E090E00E94740168EE87
:102E600073E080E090E00E94740168EE73E080E01F
:102E700090E00E947401DFCF8F5F8093040168EEC1
:102E800073E080E090E00E94740168EE73E080E0FF
:102E900090E00E94740168EE73E080E090E00E9490
:102EA00074017ECF1093A70180E18093B00189CF98
:102EB0008F5F8093040168EE73E080E090E00E94F1
:102EC000740168EE73E080E090E00E94740168EEA7
:102ED00073E080E090E00E94740191CF8091A8019E
:102EE0009091A90101969093A9018093A80195CF93
:102EF0008091A6018130D1F48091A4019091A50127
:102F000001969093A5018093A4018091A4019091D2
:102F1000A501893C910554F01092A5011092A401DD
:102F20001092A60160E087E00E94DE008091A3017C
:102F30008130D1F48091A1019091A20101969093EA
:102F4000A2018093A1018091A1019091A201893CED
:102F5000910554F01092A2011092A1011092A301C8
:102F600060E086E00E94DE008091A0018130D1F413
:102F700080919E0190919F01019690939F01809373
:102F80009E0180919E0190919F01893C910554F092
:102F900010929F0110929E011092A00160E085E0C6
:102FA0000E94DE008091B001843109F072C064E6B5
:102FB00070E080E090E00E94740180919D01811199
:102FC0000EC01093040181E00E948507811105C0A5
:102FD0008091040183300CF4C0C010939D01809156
:102FE000A6018130D1F48091A4019091A5010196B0
:102FF0009093A5018093A4018091A4019091A501D3
:10300000893C910554F01092A5011092A4011092F0
:10301000A60160E087E00E94DE008091A30181307C
:10302000D1F48091A1019091A20101969093A20107
:103030008093A1018091A1019091A201893C910509
:1030400054F01092A2011092A1011092A30160E02D
:1030500086E00E94DE008091A0018130D1F4809151
:103060009E0190919F01019690939F0180939E01F4
:1030700080919E0190919F01893C910554F010929E
:103080009F0110929E011092A00160E085E00E94D5
:10309000DE008091B001883009F040C08BE60E94CC
:1030A000A2021092A9011092A80168EE73E080E0DC
:1030B00090E00E9474011093040180E00E94850753
:1030C000813029F48091040183300CF45CC01093AA
:1030D000040180E00E94E206813029F4809104011D
:1030E00083300CF466C01093040180E00E943F0618
:1030F000813029F48091040183300CF470C060E0C9
:1031000087E00E94DE0060E086E00E94DE0060E072
:1031100085E00E94DE008AE08093B0018091B001DA
:103120008A3009F0E5CB60E083E00E94DE0068EEC3
:1031300073E080E090E00E94740168EE73E080E04C
:1031400090E00E94740168EE73E080E090E00E94DD
:1031500074018BE08093B001C4CB8F5F8093040136
:1031600068EE73E080E090E00E94740168EE73E026
:1031700080E090E00E94740168EE73E080E090E0EF
:103180000E94740120CF8F5F8093040168EE73E08A
:1031900080E090E00E94740168EE73E080E090E0CF
:1031A0000E94740168EE73E080E090E00E94740178
:1031B00084CF8F5F8093040168EE73E080E090E03D
:1031C0000E94740168EE73E080E090E00E94740158
:1031D00068EE73E080E090E00E9474017ACF8F5F28
:1031E0008093040168EE73E080E090E00E94740137
:1031F00068EE73E080E090E00E94740168EE73E096
:1032000080E090E00E94740170CF811106C080912F
:10321000AB01811102C09093B0015090B00181E0E8
:1032200058120DCD5092AB0164E670E080E090E062
:103230000E9474010E949F09863292400CF0F5CCE6
:103240005092040181E00E943F06811105C08091E7
:10325000040183300CF4D3CC1092A9011092A80180
:103260008091A8019091A9018C38910509F0E7CCD3
:103270001092A9011092A8011093040180E00E940D
:103280003F06813009F0DBCC8091040183300CF0E3
:10329000D6CC8F5F8093040168EE73E080E090E00D
:1032A0000E94740168EE73E080E090E00E94740177
:1032B00068EE73E080E090E00E947401DFCF052E9D
:1032C00097FB1EF400940E94761957FD07D00E94C8
:1032D000911907FC03D04EF40C9476195095409543
:1032E000309521953F4F4F4F5F4F089590958095B2
:1032F000709561957F4F8F4F9F4F08950E94B3192E
:10330000A59F900DB49F900DA49F800D911D112439
:103310000895B7FF0C947E190E947E19821B930BAF
:103320000895A1E21A2EAA1BBB1BFD010DC0AA1F06
:10333000BB1FEE1FFF1FA217B307E407F50720F01E
:10334000A21BB30BE40BF50B661F771F881F991F99
:103350001A9469F760957095809590959B01AC01E2
:10336000BD01CF010895A29FB001B39FC001A39FEB
:10337000700D811D1124911DB29F700D811D1124AE
:10338000911D08950E94041A08F481E00895E894BC
:1033900009C097FB3EF490958095709561957F4F9D
:1033A0008F4F9F4F9923A9F0F92F96E9BB2793954B
:1033B000F695879577956795B795F111F8CFFAF45B
:1033C000BB0F11F460FF1BC06F5F7F4F8F4F9F4F8C
:1033D00016C0882311F096E911C0772321F09EE8EA
:1033E000872F762F05C0662371F096E8862F70E050
:1033F00060E02AF09A95660F771F881FDAF7880F2A
:103400009695879597F90895990F0008550FAA0B7F
:10341000E0E8FEEF16161706E807F907C0F01216E7
:103420001306E407F50798F0621B730B840B950BEA
:1034300039F40A2661F0232B242B252B21F408953F
:103440000A2609F4A140A6958FEF811D811D0895DC
:103450000E94041A08F48FEF08950E94401A0C94F9
:10346000B11A0E94A31A38F00E94AA1A20F09523DC
:1034700011F00C949A1A0C94A01A11240C94E51AC9
:103480000E94C21A70F3959FC1F3950F50E0551F2B
:10349000629FF001729FBB27F00DB11D639FAA27A9
:1034A000F00DB11DAA1F649F6627B00DA11D661FF8
:1034B000829F2227B00DA11D621F739FB00DA11D19
:1034C000621F839FA00D611D221F749F3327A00DD3
:1034D000611D231F849F600D211D822F762F6A2F6F
:1034E00011249F5750409AF0F1F088234AF0EE0FD4
:1034F000FF1FBB1F661F771F881F91505040A9F701
:103500009E3F510580F00C949A1A0C94E51A5F3F87
:10351000E4F3983ED4F3869577956795B795F7953C
:10352000E7959F5FC1F7FE2B880F911D96958795B4
:1035300097F9089597F99F6780E870E060E0089533
:103540009FEF80EC089500240A94161617061806BB
:103550000906089500240A94121613061406050697
:103560000895092E0394000C11F4882352F0BB0F28
:1035700040F4BF2B11F460FF04C06F5F7F4F8F4F8B
:103580009F4F089557FD9058440F551F59F05F3FC6
:1035900071F04795880F97FB991F61F09F3F79F075
:1035A00087950895121613061406551FF2CF4695F7
:1035B000F1DF08C0161617061806991FF1CF869579
:1035C0007105610508940895E894BB27662777275D
:1035D000CB0197F90895991B79E004C0991F9617BC
:1035E00008F0961B881F7A95C9F780950895EE0F0D
:1035F000FF1F0590F491E02D0994F894FFCFB401DA
:10360000B40101010101000000005502B501E20111
:10361000A7021302F101050200000000AA057D05C2
:0A362000D90553057605630554052E
:107E0000112484B714BE81FFF0D085E080938100F7
:107E100082E08093C00088E18093C10086E0809377
:107E2000C20080E18093C4008EE0C9D0259A86E02C
:107E300020E33CEF91E0309385002093840096BBD3
:107E4000B09BFECF1D9AA8958150A9F7CC24DD24C4
:107E500088248394B5E0AB2EA1E19A2EF3E0BF2EE7
:107E6000A2D0813461F49FD0082FAFD0023811F036
:107E7000013811F484E001C083E08DD089C08234E0
:107E800011F484E103C0853419F485E0A6D080C0E4
:107E9000853579F488D0E82EFF2485D0082F10E0AE
:107EA000102F00270E291F29000F111F8ED06801E7
:107EB0006FC0863521F484E090D080E0DECF843638
:107EC00009F040C070D06FD0082F6DD080E0C81688
:107ED00080E7D80618F4F601B7BEE895C0E0D1E017
:107EE00062D089930C17E1F7F0E0CF16F0E7DF06D8
:107EF00018F0F601B7BEE89568D007B600FCFDCFD4
:107F0000A601A0E0B1E02C9130E011968C91119780
:107F100090E0982F8827822B932B1296FA010C0160
:107F200087BEE89511244E5F5F4FF1E0A038BF0790
:107F300051F7F601A7BEE89507B600FCFDCF97BE46
:107F4000E89526C08437B1F42ED02DD0F82E2BD052
:107F50003CD0F601EF2C8F010F5F1F4F84911BD097
:107F6000EA94F801C1F70894C11CD11CFA94CF0C13
:107F7000D11C0EC0853739F428D08EE10CD085E9AC
:107F80000AD08FE07ACF813511F488E018D01DD067
:107F900080E101D065CF982F8091C00085FFFCCF94
:107FA0009093C60008958091C00087FFFCCF809118
:107FB000C00084FD01C0A8958091C6000895E0E648
:107FC000F0E098E1908380830895EDDF803219F02E
:107FD00088E0F5DFFFCF84E1DECF1F93182FE3DFCA
:107FE0001150E9F7F2DF1F91089580E0E8DFEE27F6
:047FF000FF270994CA
:027FFE00040479
:00000001FF
