:020000040000FA
:100000000C9462000C94980B0C94710B0C948A0065
:100010000C948A000C948A000C948A000C948A0038
:100020000C948A000C948A000C948A000C94360D6F
:100030000C948A000C94F20D0C948A000C948A00A3
:100040000C94270B0C948A000C94E50B0C94BF0BBA
:100050000C948A000C948A000C948A000C948A00F8
:100060000C94170C0C948A00000000002400270058
:100070002A0000000000250028002B0000000000DE
:1000800023002600290004040404040404040202DA
:100090000202020203030303030301020408102007
:1000A0004080010204081020010204081020000012
:1000B0000008000201000003040700000000000027
:1000C0000000170E11241FBECFEFD8E0DEBFCDBF5A
:1000D00011E0A0E0B1E0E0E6F7E302C005900D9288
:1000E000AE32B107D9F722E0AEE2B1E001C01D9215
:1000F000A63FB207E1F710E0C2E6D0E004C02197C6
:10010000FE010E94A81BC136D107C9F70E94690EE3
:100110000C94AE1B0C940000833081F028F48130E5
:1001200099F08230A9F008958730A9F08830C9F09D
:100130008430B1F4809180008F7D03C08091800075
:100140008F7780938000089584B58F7784BD08955C
:1001500084B58F7DFBCF8091B0008F778093B00006
:1001600008958091B0008F7DF9CFCF93DF93282F32
:1001700030E0F901E255FF4F8491F901E656FF4F57
:10018000D491F901EA57FF4FC491CC23A1F081111A
:100190000E948C00EC2FF0E0EE0FFF1FE458FF4FA1
:1001A000A591B491EC91ED2381E090E009F480E019
:1001B000DF91CF91089580E090E0FACF1F93CF9325
:1001C000DF93282F30E0F901E255FF4F8491F901C8
:1001D000E656FF4FD491F901EA57FF4FC491CC2363
:1001E000A9F0162F81110E948C00EC2FF0E0EE0F89
:1001F000FF1FEE58FF4FA591B4918FB7F894EC9183
:10020000111108C0D095DE23DC938FBFDF91CF9111
:100210001F910895DE2BF8CFCF93DF9390E0FC0180
:10022000E656FF4F24918A579F4FFC018491882303
:10023000D1F090E0880F991FFC01E859FF4FA5917C
:10024000B491FC01EE58FF4FC591D491623071F426
:100250009FB7F8943C91822F809583238C93E881FB
:100260002E2B28839FBFDF91CF9108958FB7F894ED
:10027000EC912E2B2C938FBFF6CF8E508064809301
:100280007C0080917A00806480937A0080917A006B
:1002900086FDFCCF809178009091790008953FB75A
:1002A000F8948091BC019091BD01A091BE01B091E4
:1002B000BF0126B5A89B05C02F3F19F00196A11DCF
:1002C000B11D3FBFBA2FA92F982F8827BC01CD01A0
:1002D000620F711D811D911D42E0660F771F881FFF
:1002E000991F4A95D1F708958F929F92AF92BF922E
:1002F000CF92DF92EF92FF924B015C010E944F017F
:100300006B017C010E944F016C197D098E099F09C8
:10031000683E734081059105A8F321E0821A910897
:10032000A108B10888EEC80E83E0D81EE11CF11CBC
:1003300081149104A104B10429F7FF90EF90DF909C
:10034000CF90BF90AF909F908F9008952FB7F89463
:100350006091B8017091B9018091BA019091BB018F
:100360002FBF0895089508950895AF92BF92CF9238
:10037000DF92EF92FF920F931F93CF93DF936C0165
:100380007B018B01040F151FEB015E01AE18BF0846
:10039000C017D10759F06991D601ED91FC910190F8
:1003A000F081E02DC6010995892B79F7C501DF9110
:1003B000CF911F910F91FF90EF90DF90CF90BF9062
:1003C000AF900895FC01538D448D252F30E0842F8C
:1003D00090E0821B930B541710F0CF96089501976D
:1003E0000895FC01918D828D981761F0A28DAE0F5A
:1003F000BF2FB11D5D968C91928D9F5F9F73928FE1
:1004000090E008958FEF9FEF0895FC01918D828D0C
:10041000981731F0828DE80FF11D858D90E00895D9
:100420008FEF9FEF0895FC01918D228D892F90E031
:10043000805C9F4F821B91098F739927089586E3F3
:1004400092E00E94130221E0892B09F420E0822F20
:10045000089580E090E0892B29F00E941F0281110D
:100460000C9400000895FC01A48DA80FB92FB11DB4
:10047000A35ABF4F2C91848D90E001968F739927DA
:10048000848FA689B7892C93A089B1898C918370B8
:1004900080648C93938D848D981306C00288F389B1
:1004A000E02D80818F7D80830895EF92FF920F93DE
:1004B0001F93CF93DF93EC0181E0888F9B8D8C8D10
:1004C00098131AC0E889F989808185FF15C09FB704
:1004D000F894EE89FF896083E889F98980818370C7
:1004E000806480839FBF81E090E0DF91CF911F9176
:1004F0000F91FF90EF900895F62E0B8D10E00F5F97
:100500001F4F0F731127E02E8C8D8E110CC00FB66C
:1005100007FCFACFE889F989808185FFF5CFCE0104
:100520000E943302F1CFEB8DEC0FFD2FF11DE35A4A
:10053000FF4FF0829FB7F8940B8FEA89FB89808187
:100540008062CFCF682F86E392E00C945502CF9360
:10055000DF93EC01888D8823B9F0AA89BB89E889EB
:10056000F9898C9185FD03C0808186FD0DC00FB691
:1005700007FCF7CF8C9185FFF2CF808185FFEDCF0F
:10058000CE010E943302E9CFDF91CF9108952091EF
:100590007801260F3327331F21323105ECF42091E7
:1005A0000C02FC0190E080E0243069F082E00895C4
:1005B000A09178012191AC01485A5E4FA40FB52F4C
:1005C000B11D2C930196861798F380917801680FDE
:1005D0006093780180E0089581E0089510920C0204
:1005E00081E080930B021092E60161E082E10E94BB
:1005F000DE0061E083E10E94DE00E9EBF0E0808153
:100600008E7F808380818D7F808388E48093B80093
:1006100085E48093BC000895CF93DF9391E090939D
:1006200057018823B9F0C091B800D091BA008091E9
:10063000BC008A7B8093BC0060E082E10E94DE0007
:1006400060E083E10E94DE000E94EE02D093BA00D7
:10065000C093B800DF91CF9108958F929F92AF928F
:10066000BF92CF92DF92EF92FF920F931F93CF939F
:10067000DF93D0913502D13208F0D7C0182FC09146
:1006800034020E944F016B017C0180910C028111A8
:100690006BC082E080930C0210930B028FEF80936B
:1006A0000A0210920902D0930802A4E1B2E0E8EE37
:1006B000F1E080E0D81391C01092E7018091E7014A
:1006C000CC0FC82BC093E7018091E601813009F07F
:1006D00088C01092E6010E944F016B017C0180915D
:1006E000E7018093BB0080910E0290910F02A091D0
:1006F0001002B0911102892B8A2B8B2BA1F00E9442
:100700004F0100910E0210910F02209110023091C2
:1007100011026C197D098E099F0906171707280712
:10072000390708F442C08091BC0083FDD8CF85EC26
:100730008093BC000E944F016B017C0180910C02F0
:10074000823009F450C080910A028F3F09F46FC0D3
:1007500080910A02803209F46CC080910A028033D1
:1007600009F469C084E026C080910E0290910F02C6
:10077000A0911002B0911102892B8A2B8B2B09F4C6
:1007800084CF0E944F0180900E0290900F02A090A3
:100790001002B09011026C197D098E099F0986160E
:1007A0009706A806B90608F070CF80910D020E9446
:1007B0000C0385E01092130210923502109212027F
:1007C000DF91CF911F910F91FF90EF90DF90CF902D
:1007D000BF90AF909F908F9008959D9191938F5F60
:1007E00069CF85EEA5CF80910E0290910F02A09166
:1007F0001002B0911102892B8A2B8B2B09F49ECF0A
:100800000E944F0100910E0210910F0220911002E0
:10081000309111026C197D098E099F09061717077F
:100820002807390708F08ACFC0CF81E0C3CF80E026
:10083000C1CF82E0BFCF83E0BDCF1F93CF93DF93C3
:10084000162FC8EED2E0A981BA819B8121E02093C6
:100850001202909334021092130210923502ED911D
:10086000FC9111970190F081E02D682FCD01099541
:1008700089819A81DC01ED91FC910190F081E02D5C
:10088000612F099581E00E942D038883DF91CF912C
:100890001F9108950F931F93CF93DF93162F072F68
:1008A000C8EED2E0A981BA819B8121E02093120297
:1008B000909334021092130210923502ED91FC9144
:1008C00011970190F081E02D682FCD010995898164
:1008D0009A81DC01ED91FC910190F081E02D602F77
:1008E000099589819A81DC01ED91FC910190F0815B
:1008F000E02D612F099581E00E942D038883DF910F
:10090000CF911F910F910895CF92DF92EF92FF92B6
:100910000F931F93CF93DF93D82FC62F613208F028
:1009200098C00E944F016B017C0180910C028111E3
:100930006BC081E080930C0280930B029FEF909339
:100940000A02109209029C0F909308028093E7011B
:100950008091E701DD0FD82BD093E7018091E6016C
:10096000813009F078C01092E6010E944F016B01BE
:100970007C018091E7018093BB0080910E029091F1
:100980000F02A0911002B0911102892B8A2B8B2BA0
:10099000A1F00E944F0100910E0210910F022091D0
:1009A0001002309111026C197D098E099F090617FA
:1009B00017072807390708F448C08091BC0083FD59
:1009C000D8CF85EC8093BC000E944F016B017C0165
:1009D00080910C02813009F440C0809109028C178B
:1009E00010F4C0910902E8EEF1E0A6ECB1E080E07D
:1009F0008C1355C08C2FDF91CF911F910F91FF90D9
:100A0000EF90DF90CF90089580910E0290910F02A9
:100A1000A0911002B0911102892B8A2B8B2B09F423
:100A200084CF0E944F0100910E0210910F0220917D
:100A30001002309111026C197D098E099F09061769
:100A400017072807390708F070CF80910D020E9420
:100A50000C03C0E0CFCF85EEB5CF80910E02909110
:100A60000F02A0911002B0911102892B8A2B8B2BBF
:100A700009F4AECF0E944F0100910E0210910F02B7
:100A800020911002309111026C197D098E099F0985
:100A9000061717072807390708F09ACFD6CF919184
:100AA0009D938F5FA5CF0895E091C5018091C4010A
:100AB000E81730F4F0E0EA53FE4F808190E00895AB
:100AC0008FEF9FEF08959091C5018091C4012FEFA2
:100AD0003FEF981748F4E92FF0E0EA53FE4F2081EA
:100AE00030E09F5F9093C501C90108958091C401D2
:100AF0009091C501891B990B0895CF92DF92EF92D7
:100B0000FF920F931F93CF93DF937C01CB018A0158
:100B100020911202222389F0EB016B01C40ED51E35
:100B2000CC15DD0569F06991D701ED91FC9101903B
:100B3000F081E02DC7010995F3CF642F0E94C70211
:100B4000C801DF91CF911F910F91FF90EF90DF903F
:100B5000CF900895CF93DF931F92CDB7DEB769830F
:100B6000209112022223F9F020913502203258F010
:100B700021E030E0FC013383228390E080E00F909D
:100B8000DF91CF91089580911302E82FF0E0EC5EA1
:100B9000FD4F998190838F5F80931302809335027C
:100BA00081E090E0ECCF61E0CE0101960E94C702A7
:100BB000F7CF90E080E008958F929F92AF92BF921E
:100BC000FF920F931F93CF93DF93FC01F0808BE094
:100BD0008F1508F44AC0828108E512E0081B11094C
:100BE00087FD1395000F111F000F111F8181C8E8A9
:100BF000D0E0C81BD10987FDD395CC0FDD1FCC0FEA
:100C0000DD1F4E010D2E000CAA08BB089801012E15
:100C1000000C440B550B281939094A095B09DB0103
:100C20000E943A1A24EB30E040E050E00E94101A93
:100C3000820E931EA41EB51E8C169D062CF0E80194
:100C4000801691060CF4E4012297CC0FDD1F2FB71C
:100C5000F8948F2D90E0FC01EE0FFF1FE80FF91FB5
:100C6000ED5CFE4FD283C1832FBFDF91CF911F91E7
:100C70000F91FF90BF90AF909F908F900895CF926B
:100C8000DF92EF92FF92CF93C82F70E060E088234D
:100C900011F069E370E085EE92E00E94DC0568EEF9
:100CA00073E080E090E00E9474018EE00E943D01BC
:100CB000BC01990F880B990B0E947A1A20E030E052
:100CC00040EA5BE30E94DE1A6B017C01C11149C05E
:100CD00026E636E646EE5EE30E94D91A1816B4F40C
:100CE0002AE939E949E15FE3C701B6010E94731AB5
:100CF00087FF0CC081E60E94A202C092C001D09280
:100D0000C101E092C201F092C30124C081E40E94BB
:100D1000A20269E370E085EE92E00E94DC0580911A
:100D20000901811104C061E084E00E94DE0068EEE8
:100D300073E080E090E00E94740160E084E00E9433
:100D4000DE00C092C001D092C101E092C201F092D7
:100D5000C301C1E08C2FCF91FF90EF90DF90CF9037
:100D6000089520E030E040E85FE30E94D91A1816A9
:100D700064F426E636E646EA5FE3C701B6010E9460
:100D8000731A87FF02C081E4B6CF81E60E94A202F7
:100D900070E060E085EE92E00E94DC058091090140
:100DA000811104C061E084E00E94DE0068EE73E01F
:100DB00080E090E00E94740160E084E00E94DE0028
:100DC000C092C001D092C101E092C201F092C30171
:100DD000C0E0C0CFCF92DF92EF92FF92CF93C82FA7
:100DE00070E060E0882311F069E370E082EE92E049
:100DF0000E94DC0568EE73E080E090E00E947401E0
:100E00008FE00E943D01BC01990F880B990B0E9455
:100E10007A1A20E030E040EA5BE30E94DE1A6B01C0
:100E20007C01C11149C026E636E646EE5EE30E942B
:100E3000D91A1816B4F42AE939E949E15FE3C70180
:100E4000B6010E94731A87FF0CC085E60E94A202B9
:100E5000C092C001D092C101E092C201F092C301E0
:100E600024C085E40E94A20269E370E082EE92E071
:100E70000E94DC0580910901811104C061E084E0D9
:100E80000E94DE0068EE73E080E090E00E94740152
:100E900060E084E00E94DE00C092C001D092C101F7
:100EA000E092C201F092C301C1E08C2FCF91FF907C
:100EB000EF90DF90CF90089520E030E040E85FE3CE
:100EC0000E94D91A181664F426E636E646EA5FE36D
:100ED000C701B6010E94731A87FF02C085E4B6CF2E
:100EE00085E60E94A20270E060E082EE92E00E943D
:100EF000DC0580910901811104C061E084E00E9459
:100F0000DE0068EE73E080E090E00E94740160E033
:100F100084E00E94DE00C092C001D092C101E09244
:100F2000C201F092C301C0E0C0CFCF92DF92EF9236
:100F3000FF92CF93C82F70E060E0882311F069E33F
:100F400070E08FED92E00E94DC0568EE73E080E0D7
:100F500090E00E94740180E10E943D01BC01990F64
:100F6000880B990B0E947A1A20E030E040EA5BE39C
:100F70000E94DE1A6B017C01C11149C026E636E6EB
:100F800046EE5EE30E94D91A1816B4F42AE939E94C
:100F900049E15FE3C701B6010E94731A87FF0CC0E5
:100FA00089E60E94A202C092C001D092C101E092E3
:100FB000C201F092C30124C089E40E94A20269E345
:100FC00070E08FED92E00E94DC05809109018111B3
:100FD00004C061E084E00E94DE0068EE73E080E01F
:100FE00090E00E94740160E084E00E94DE00C09204
:100FF000C001D092C101E092C201F092C301C1E0F0
:101000008C2FCF91FF90EF90DF90CF90089520E04C
:1010100030E040E85FE30E94D91A181664F426E62F
:1010200036E646EA5FE3C701B6010E94731A87FFFE
:1010300002C089E4B6CF89E60E94A20270E060E0B7
:101040008FED92E00E94DC0580910901811104C0BE
:1010500061E084E00E94DE0068EE73E080E090E0F2
:101060000E94740160E084E00E94DE00C092C00132
:10107000D092C101E092C201F092C301C0E0C0CFA2
:101080001F93CF93DF93EC01162F88818C3008F0EB
:101090004EC061E0812F0E940C018881282F30E032
:1010A000F901EE0FFF1FE20FF31FED5CFE4F1F7300
:1010B0006081607C612B608319821A822CE0622F30
:1010C0000E949C1B829FB001112430E020E0AB0104
:1010D000420F531FFA01EE0FFF1FE40FF51FED5CE7
:1010E000FE4F908196FD16C02F5F3F4F2C3031058B
:1010F00071F781110FC01092800082E0809381000F
:101100001092850010928400B19A80916F008260E5
:1011100080936F00E8818E2F90E0FC01EE0FFF1F9F
:10112000E80FF91FED5CFE4F808180648083888129
:10113000DF91CF911F9108950895EF92FF920F9341
:101140001F93CF93C1E002E010E0EE24E394F12C72
:1011500086E392E00E941302181619066CF586E3E6
:1011600092E00E94F1019091B5019111F1CF8C3381
:1011700029F4F0923001E0922F01EACF20912F0163
:10118000309130012130310539F480932E011093D4
:10119000300100932F01DCCF22303105C9F68E33A8
:1011A00031F480912E018093B601C093B501109265
:1011B000300110922F01CCCFCF911F910F91FF9052
:1011C000EF900895CF938091B201813071F48091B6
:1011D000B1018F5F8093B1018091B101833028F01C
:1011E0001092B10182E08093B2018091B20184300B
:1011F00071F48091B1018F5F8093B1018091B10151
:10120000833028F01092B10185E08093B201809183
:10121000B201873021F08091B201843151F5809183
:10122000B1018F5F8093B101C091B101C13031F440
:1012300061E087E00E94DE00C093A8018091B101C7
:10124000823039F461E086E00E94DE0081E0809324
:10125000A5018091B101833061F461E085E00E94D5
:10126000DE0081E08093A2011092B10188E08093BA
:10127000B201CF9108950F931F93CF93DF93C8EEE0
:10128000D2E0A981BA819B8121E020931202909340
:1012900034021092130210923502ED91FC911197D5
:1012A0000190F081E02D682FCD01099581E00E9429
:1012B0002D03888362E08B810E9484041092C50113
:1012C0008093C40189819A81DC01ED91FC910284B3
:1012D000F385E02D099500E0182F89819A81DC01C2
:1012E000ED91FC910284F385E02D0995802B912BE3
:1012F000DF91CF911F910F910895CF93DF93C8EEA7
:10130000D2E0A981BA819B8121E0209312029093BF
:1013100034021092130210923502ED91FC91119754
:101320000190F081E02D682FCD01099581E00E94A8
:101330002D03888361E08B810E9484041092C50193
:101340008093C40189819A81DC01ED91FC91028432
:10135000F385E02D0995DF91CF910895CF93DF9329
:10136000EC0181E00E947D0984FB992790F9988324
:1013700083FB992790F99A8382FB992790F99983A7
:1013800086FB992790F99B83881F8827881F8C8369
:10139000DF91CF910895682F616080E00E941D0465
:1013A0000E94A6017093F0026093EF0283E10E9415
:1013B0007D098770B9F48091EC029091ED02892B40
:1013C000A9F30E94A6012091EF023091F002621B66
:1013D000730B8091EC029091ED028617970730F71E
:1013E00080E0089561E08BE00E941D0460E080E0F1
:1013F0000E941D0481E00895CF93DF930E94A6010F
:101400007093F0026093EF0283E10E947D09877080
:10141000F1F48091EC029091ED02892BA9F30E94E6
:10142000A6012091EF023091F002621B730B8091B4
:10143000EC029091ED028617970730F781E08093D8
:10144000EE02CFEFDFEFCE01DF91CF9108958EE175
:101450000E943B09EC0161E08BE00E941D04F3CF88
:101460008F929F92AF92BF92EF92FF920F931F9332
:10147000CF93DF937C01EB0180E50E947D098F5FB4
:10148000880F90E09983888386E40E947D09082F65
:1014900010E00F5F1F4F1D830C83A881B0E020E098
:1014A0003FE24AE350E00E942F1A6C507E4F8F4F6C
:1014B0009F4F38EE832E33E0932EA12CB12CA50143
:1014C00094010E94421AD8010E943A1A6C507E4F31
:1014D0008F4F9F4FA50194010E94421A2A873B8794
:1014E0004C875D8781E50E943B098C01112702C072
:1014F000000F111F9A95E2F70F5F1F4F1F830E8396
:10150000A881B0E020E03FE24AE350E00E942F1AB9
:101510006C507E4F8F4F9F4FA50194010E94421A3D
:10152000D8010E942F1A6C507E4F8F4F9F4FA501FC
:1015300094010E94421A2E873F87488B598B80E77F
:101540000E947D098F5F880F90E09B838A8381E7EB
:101550000E943B099C01992702C0880F991F3A9568
:10156000E2F7019699878887F7012381222331F0DA
:101570002E813F81821B930B99878887AA81B0E0D7
:1015800020E03FE24AE350E00E942F1A6C507E4F69
:101590008F4F9F4F28EE822E23E0922EA12CB12C4C
:1015A000A50194010E94421AA885B9850E942F1AAC
:1015B0006C507E4F8F4F9F4FA50194010E94421A9D
:1015C0002A8B3B8B4C8B5D8BDF91CF911F910F91C1
:1015D000FF90EF90BF90AF909F908F90089585ED12
:1015E0008093BC0080910E0290910F02A091100296
:1015F000B09111020796A11DB11D23E0B695A795E4
:10160000979587952A95D1F72091BC0024FD03C0BA
:1016100010920C02089540910E0250910F026091B9
:10162000100270911102452B462B472B69F300974E
:10163000A105B10541F02AE22A95F1F700C0019712
:10164000A109B109E1CF80910D020C940C031F9206
:101650000F920FB60F9211242F933F938F939F9366
:10166000AF93BF938091B8019091B901A091BA0155
:10167000B091BB013091B70123E0230F2D3758F50E
:101680000196A11DB11D2093B7018093B8019093DD
:10169000B901A093BA01B093BB018091BC019091B4
:1016A000BD01A091BE01B091BF010196A11DB11D68
:1016B0008093BC019093BD01A093BE01B093BF0184
:1016C000BF91AF919F918F913F912F910F900FBE3E
:1016D0000F901F90189526E8230F0296A11DB11DAB
:1016E000D2CF1F920F920FB60F9211242F933F93D8
:1016F0004F935F936F937F938F939F93AF93BF931A
:10170000EF93FF93E0910201F09103010995FF919E
:10171000EF91BF91AF919F918F917F916F915F9169
:101720004F913F912F910F900FBE0F901F901895E2
:101730001F920F920FB60F9211242F933F934F9346
:101740005F936F937F938F939F93AF93BF93EF9329
:10175000FF93E0910001F09101010995FF91EF9154
:10176000BF91AF919F918F917F916F915F914F91B9
:101770003F912F910F900FBE0F901F9018951F92C1
:101780000F920FB60F9211242F933F934F935F93B5
:101790006F937F938F939F93AF93BF93EF93FF9339
:1017A00086E392E00E943302FF91EF91BF91AF91E7
:1017B0009F918F917F916F915F914F913F912F9169
:1017C0000F900FBE0F901F9018951F920F920FB69B
:1017D0000F9211242F938F939F93EF93FF93E09198
:1017E0004602F09147028081E0914C02F0914D0257
:1017F00082FD1BC0908180914F028F5F8F7320917B
:101800005002821741F0E0914F02F0E0EA5CFD4F98
:10181000958F80934F02FF91EF919F918F912F9120
:101820000F900FBE0F901F9018958081F4CF1F92DC
:101830000F920FB60F9211242F933F934F935F9304
:101840006F937F938F939F93AF93BF93EF93FF9388
:101850008091B900887F803609F44AC0F0F588325B
:1018600009F4A7C018F5803109F49BC0B8F48823A7
:1018700009F4F9C0883009F494C0FF91EF91BF9149
:10188000AF919F918F917F916F915F914F913F9118
:101890002F910F900FBE0F901F901895883109F46B
:1018A00088C0803251F780930A0214C0803409F452
:1018B0009DC040F48033B9F38833F9F680930A026F
:1018C00085ECB0C0803509F485C0883509F496C030
:1018D000883499F60E94EF0AD0CF883909F48CC079
:1018E00038F5883729F050F4883611F0803729F61A
:1018F00083E080930C0210929A0157C0883809F453
:101900007BC0803919F0803809F0B7CF80919A01F7
:10191000803208F071C0E0919A0181E08E0F8093CF
:101920009A018091BB00F0E0E658FE4F80833DC0F5
:10193000803B39F0E0F4803A09F479C0883A09F044
:101940009CCF84E080930C02109279011092780170
:10195000E0919D01F0919E0109958091780181119E
:101960000FC081E0809378011092580109C0803C3B
:1019700009F4A6CF883C09F4A3CF883B09F07DCFBA
:10198000E091790181E08E0F80937901F0E0E85ACF
:10199000FE4F80818093BB00909179018091780106
:1019A00029C08091E7018093BB0085EC8093BC0047
:1019B00064CF9091090280910802981758F5E09140
:1019C000090281E08E0F80930902F0E0E851FE4F9A
:1019D0008081E9CFE091090281E08E0F80930902B6
:1019E0008091BB00F0E0E851FE4F808390910902A6
:1019F000809108029817C8F285E8D8CFE0910902D3
:101A000081E08E0F809309028091BB00F0E0E851E5
:101A1000FE4F808380910B0281115CCF81E0809327
:101A2000E60184EA8093BC0010920C0226CF85EC7C
:101A30008093BC0010920C0280919A01803230F4A5
:101A4000E0919A01F0E0E658FE4F108260919A0111
:101A500070E0E0919B01F0919C018AE791E009958B
:101A600010929A010ACF10920A0234CF1F920F925D
:101A70000FB60F9211242F933F934F935F936F9361
:101A80007F938F939F93AF93BF93CF93DF93EF9306
:101A9000FF9380913101C0913201D0E087FF24C0D3
:101AA0001092850010928400809131018F5F8093A5
:101AB000310180913101082E000C990B8C179D0784
:101AC00024F4809131018C30C4F180918400909194
:101AD0008500049680349C4908F47AC08091840083
:101AE00090918500049676C080913101082E000CFB
:101AF000990B8C179D07C4F6E09131018E2FEE0FE4
:101B0000990BFC01EE0FFF1FE80FF91FED5CFE4F74
:101B1000808186FFC9CFE09131018E2FEE0F990BA6
:101B2000FC01EE0FFF1FE80FF91FED5CFE4F8081F7
:101B300060E08F730E94DE00B7CF20918400309167
:101B40008500E09131018E2FEE0F990BFC01EE0F15
:101B5000FF1FE80FF91FED5CFE4F81819281820F1C
:101B6000931F9093890080938800E09131018E2F1C
:101B7000EE0F990BFC01EE0FFF1FE80FF91FED5C54
:101B8000FE4F808186FF11C0E09131018E2FEE0F54
:101B9000990BFC01EE0FFF1FE80FF91FED5CFE4FE4
:101BA000808161E08F730E94DE00FF91EF91DF91F1
:101BB000CF91BF91AF919F918F917F916F915F91E5
:101BC0004F913F912F910F900FBE0F901F9018953E
:101BD00080E49CE990938900809388008FEF809344
:101BE0003101E3CF1F920F920FB60F9211240F9085
:101BF0000FBE0F901F901895FC01909132019C3000
:101C000098F481E0890F809332019083892F90E0CE
:101C1000FC01EE0FFF1FE80FF91FED5CFE4F88EB94
:101C20009BE09283818308958FEF80830895E6E39C
:101C3000F2E01382128248EE53E060E070E04483E9
:101C40005583668377838EE091E09183808385EC72
:101C500090E09587848784EC90E09787868780EC76
:101C600090E0918B808B81EC90E0938B828B82EC67
:101C700090E0958B848B86EC90E0978B868B118E11
:101C8000128E138E148EA3EDB2E013961C921E9248
:101C9000129714964D935D936D937C93179780E202
:101CA00091E011969C938E93E8EEF2E0B283A183CB
:101CB00089E2838315821482168285EE92E00E9467
:101CC000FC0D82EE92E00E94FC0D8FED92E00C94F0
:101CD000FC0DCF93DF93CDB7DEB7A1970FB6F89485
:101CE000DEBF0FBECDBF789484B5826084BD84B55D
:101CF000816084BD85B5826085BD85B5816085BD07
:101D000080916E00816080936E00109281008091BE
:101D10008100826080938100809181008160809346
:101D20008100809180008160809380008091B1006B
:101D300084608093B1008091B00081608093B00096
:101D400080917A00846080937A0080917A0082602A
:101D500080937A0080917A00816080937A008091EC
:101D60007A00806880937A001092C10068E070E089
:101D700085EE92E00E94400869E070E082EE92E019
:101D80000E9440086AE070E08FED92E00E944008F7
:101D900061E087E00E940C0161E086E00E940C0196
:101DA00061E085E00E940C0161E084E00E940C018A
:101DB00062E08BE00E940C0162E08CE00E940C016A
:101DC00062E08DE00E940C0162E081E10E940C0162
:101DD00061E083E00E940C0162E082E00E940C015D
:101DE00060E087E00E94DE0060E086E00E94DE00A6
:101DF00060E085E00E94DE0060E084E00E94DE009A
:101E000061E083E00E94DE0082EE98E090930101A1
:101E100080930001809169008C7F826080936900CB
:101E2000E89A1092C5011092C40110921302109208
:101E300035020E94EE0282EB91E090939E01809326
:101E40009D0183EB91E090939C0180939B0180EC3A
:101E50000E947D098E3E09F086C089E80E947D09B6
:101E6000682F616089E80E941D0460E088E80E9494
:101E70001D0461E080E80E941D0461E08FEF0E9474
:101E80001D0460E080E00E941D0481E90E947D093C
:101E90008093F10261E080E00E941D0460E08FEF1A
:101EA0000E941D0460E080E80E941D0480E60E94FC
:101EB0007D09682F626180E60E941D0460E270E087
:101EC00084E40E944A046FEF81E00E941D0461E0F7
:101ED00080E80E941D0461E08FEF0E941D0460E015
:101EE00080E00E941D0466E08FEF0E941D0483E8DD
:101EF0000E947D09682F646083E80E941D0467E0EA
:101F00008FEF0E941D0461E081E80E941D0461E0E2
:101F100080E80E941D046BE684E90E941D0460E0D5
:101F200083E80E941D040E94A6017093F002609352
:101F3000EF0283E80E947D098111D6C18091EC02F5
:101F40009091ED02892BA9F30E94A6012091EF0246
:101F50003091F002621B730B8091EC029091ED02C4
:101F60008617970730F784EF91E09093ED02809306
:101F7000EC0261E080E80E941D0461E08FEF0E94A6
:101F80001D0460E080E00E941D046091F10281E97F
:101F90000E941D0461E080E00E941D0460E08FEF5C
:101FA0000E941D0460E080E80E941D0462E080E061
:101FB0000E941D04E0914602F091470282E0808376
:101FC000E0914202F09143021082E0914402F091CC
:101FD000450287E6808310924E02E0914A02F0911A
:101FE0004B0286E08083E0914802F09149028081B3
:101FF00080618083E0914802F0914902808188608D
:102000008083E0914802F09149028081806880835A
:10201000E0914802F091490280818F7D808368EED3
:1020200073E080E090E00E94740170E060E085EE73
:1020300092E00E94DC0570E060E082EE92E00E9497
:10204000DC0570E060E08FED92E00E94DC0568EE58
:1020500073E080E090E00E9474011092B60110924B
:10206000B50168EB7BE080E090E00E9474018DE6B2
:102070000E94A2028EE60E94A2028FE60E94A202A5
:1020800082E60E94A20286E60E94A2028AE60E94DE
:10209000A20281E60E94A20285E60E94A20289E6CF
:1020A0000E94A20294E1892E01E026E9C22ED12CE1
:1020B00011E034E0B32E48E0A42E52E0952E85E0E6
:1020C000782E0E949D088091B601823509F08CC45B
:1020D0001092B6011092B5011092080110920901F8
:1020E000D092B401C092B30161E070E080E090E072
:1020F0000E9474018091B3019091B4010196909374
:10210000B4018093B30180910801813009F0BAC411
:1021100070E060E085EE92E00E94DC0570E060E037
:1021200082EE92E00E94DC0570E060E08FED92E0CC
:102130000E94DC0560ED77E080E090E00E94740191
:1021400081E00E943F068130B1F084E60E94A20245
:10215000BBE0EB2EF12C68EC70E080E090E00E9498
:10216000740168EC70E080E090E00E94740121E06E
:10217000E21AF10881F781E00E94EA068130B1F0AD
:1021800088E60E94A202ABE0EA2EF12C68EC70E037
:1021900080E090E00E94740168EC70E080E090E0E4
:1021A0000E94740181E0E81AF10881F781E00E9441
:1021B00095078130B1F08CE60E94A202FBE0EF2E81
:1021C000F12C68EC70E080E090E00E94740168EC13
:1021D00070E080E090E00E947401A1E0EA1AF1084A
:1021E00081F780E00E943F068130B1F484E60E94CE
:1021F000A202EBE0EE2EF12C68EC70E080E090E0C3
:102200000E94740168EC70E080E090E00E9474012C
:10221000B1E0EB1AF10881F780E00E94EA06813014
:10222000B1F488E60E94A2027BE0E72EF12C68EC74
:1022300070E080E090E00E94740168EC70E080E063
:1022400090E00E947401E1E0EE1AF10881F780E06D
:102250000E9495078130B1F48CE60E94A2026BE0E7
:10226000E62EF12C68EC70E080E090E00E947401B2
:1022700068EC70E080E090E00E947401F1E0EF1AF9
:10228000F10881F78BE00E94B500892B09F0B7C3F4
:102290008BE00E94B500892B19F488E70E94A20206
:1022A0008CE00E94B500892B19F489E70E94A202F4
:1022B0008DE00E94B500892B19F48AE70E94A202E2
:1022C00059E0E52EF12C68EE73E080E090E00E948A
:1022D000740168EE73E080E090E00E94740121E0F8
:1022E000E21AF10881F797C361E083E80E941D04B8
:1022F00082E90E947D09F82EE894F7F8D82EDD1CBB
:10230000DD24DD1C60E081E80E941D0466E08FEFA3
:102310000E941D0483E80E947D09682F6B7F83E87B
:102320000E941D0461E08FEF0E941D0461E080E0C7
:102330000E941D0460E08FEF0E941D0460E080E8B1
:102340000E941D048091E9029091EA022091EB0223
:1023500031E0309312022093340210921302109253
:102360003502DC01ED91FC910190F081E02D60EBF4
:10237000099581E00E942D038093E80266E0809138
:10238000EB020E9484041092C5018093C4018E0167
:10239000095E1F4F580127E0E22EEA94EE2079F003
:1023A0008091E9029091EA02DC01ED91FC910284B6
:1023B000F385E02D0995F50181935F01EECF61E092
:1023C0008FEF0E941D0460E08FE40E941D046CE208
:1023D0008EE40E941D0460E08FEF0E941D0464EBF8
:1023E00086EB0E941D049CE0E92ED11001C0E12C77
:1023F00090E080E0E1E0F0E0482F46954695469574
:1024000050E09801240F351FD9012C91682F677077
:102410008E1510F0F9123BC0400F511FDF0102C0B2
:10242000AA0FBB1F6A95E2F7BD0160952623DA016A
:102430002C938F5F803301F78091E9029091EA023B
:102440002091EB0231E0309312022093340210927B
:10245000130210923502DC01ED91FC910190F081A4
:10246000E02D60EB099587E0F82EFA94FF20C9F083
:102470008091E9029091EA02F80161918F01DC01FB
:10248000ED91FC910190F081E02D0995EECF30E0C7
:1024900002C0359527956A95E2F720FFCACF9F5F66
:1024A000C8CF81E00E942D038093E80261E08FEFA6
:1024B0000E941D0460E080E00E941D0460E08FEF38
:1024C0000E941D0460E089E00E941D0460E080E13C
:1024D0000E941D0460E081E10E941D0461E084E22D
:1024E0000E941D046FEF85E20E941D0460E085E7F5
:1024F0000E941D0461E08FEF0E941D046CE28EE4D7
:102500000E941D0460E088E40E941D0460E280E3F4
:102510000E941D0460E08FEF0E941D0469E080E3CB
:102520000E941D0460E084E50E941D0464E081E3D4
:102530000E941D0463E082E30E941D0463E880E4BE
:102540000E941D0465E286E40E941D0460E080E6AE
:102550000E941D0460E087E20E941D0466E080E5A1
:102560000E941D0460E081E50E941D0466E982E589
:102570000E941D0468E086E50E941D0460E387E573
:102580000E941D0460E081E60E941D0460E082E676
:102590000E941D0460E084E60E941D0460E085E660
:1025A0000E941D0460EA86E60E941D0461E08FEF30
:1025B0000E941D0462E382E20E941D0464E187E43C
:1025C0000E941D046FEF89E40E941D0460E08AE40C
:1025D0000E941D0460E08FEF0E941D046AE08AE7FC
:1025E0000E941D0460E08BE70E941D0461E288E701
:1025F0000E941D0461E08FEF0E941D0464E383E2EA
:102600000E941D0460E082E40E941D046FEF84E4D8
:102610000E941D0466E285E40E941D0465E086E4D4
:102620000E941D0460E480E40E941D0466E08EE0C8
:102630000E941D046AE180E20E941D0460E483E4BC
:102640000E941D0460E08FEF0E941D0463E084E39C
:102650000E941D0464E485E30E941D0461E08FEF85
:102660000E941D0464E081E30E941D0469E08BE484
:102670000E941D0465E08CE40E941D0464E08DE46A
:102680000E941D0460E08FEF0E941D0460E084E45E
:102690000E941D0460E285E40E941D0468E087E456
:1026A0000E941D0468E288E40E941D0460E087E641
:1026B0000E941D0464E080E70E941D0461E081E740
:1026C0000E941D046EEF82E70E941D0460E086E711
:1026D0000E941D0460E087E70E941D0461E08FEF07
:1026E0000E941D0461E08DE00E941D0460E08FEFF8
:1026F0000E941D0461E080E80E941D0468EF81E0F3
:102700000E941D0461E08FEF0E941D0461E08EE8CD
:102710000E941D0461E080E00E941D0460E08FEFD4
:102720000E941D0460E080E80E941D0464E08AE0CD
:102730000E941D0484E80E947D09682F6F7E84E852
:102740000E941D0461E08BE00E941D04CE014D96A5
:102750000E94AE09BE016F5F7F4FCE014D960E9471
:10276000300A8D8D882309F4F3C08B859C85AD8557
:10277000BE858C57924FAF4FBF4F2F8D222309F448
:10278000ECC04B855C856D857E854E545D4F6F4FEB
:102790007F4F440F551F661F771F840F951FA61F7D
:1027A000B71F28A1222361F04F85588969897A894A
:1027B0004C565D4F6F4F7F4F840F951FA61FB71F5D
:1027C00029A1222361F04B895C896D897E894A5D4C
:1027D0005D4F6F4F7F4F840F951FA61FB71F8093CC
:1027E000F2029093F302A093F402B093F50268EE24
:1027F00081E00E941D04C090F202D090F302E090AC
:10280000F402F090F502CE014D960E94AE09BE0191
:102810006F5F7F4FCE014D960E94300A8D8D8823C9
:1028200009F4A8C08B859C85AD85BE858C57924FD9
:10283000AF4FBF4F2F8D222309F4A1C04B855C857C
:102840006D857E854E545D4F6F4F7F4F440F551FF2
:10285000661F771F840F951FA61FB71F18A111238E
:1028600061F04F85588969897A894C565D4F6F4F61
:102870007F4F840F951FA61FB71F29A1222309F49C
:102880009AC02C013D01E6E24E0EE2E05E1E611CA4
:10289000711CC414D504E604F70408F48CC0AB81A1
:1028A000B0E020E03FE24AE350E00E942F1A4B01E3
:1028B0005C01F4EF8F0EF1E09F1EA11CB11CA7017B
:1028C00096012419350946095709A8EEB3E00E947C
:1028D0002F1A2B013C01C501B40120ED37E040E087
:1028E00050E00E94421A420E531E641E751EC5011E
:1028F000B40128EE33E040E050E00E94421AC301E8
:10290000B2010E94421A112331F08F819885280F5D
:10291000391F411D511D70E060E021153105410551
:102920005105F1F189019A0101501109210931097B
:1029300070E060E0D901C8018827892B8A2B8B2B96
:1029400059F136952795179507956F5F7F4FF2CF11
:1029500086E39BE0A0E0B0E010CF2E8D222309F4A7
:1029600020CF4B855C856D857E854C565D4F6F4FC6
:102970007F4F13CF86E39BE0A0E0B0E05BCF2E8DCE
:10298000222309F46BCF4B855C856D857E854C5683
:102990005D4F6F4F7F4F5ECF762F6627602B712B79
:1029A00081E70E944A04C092F202D092F302E092C0
:1029B000F402F092F50261E081E00E941D0480E4DF
:1029C0000E94CB09882309F4CECA62E081E00E940C
:1029D0001D0480E00E94CB09882309F4C4CA68EE74
:1029E00081E00E941D04BFCA8091B3019091B4019F
:1029F0008436910509F078CB0093080175CB8CE003
:102A00000E94B500892B09F443CC8DE00E94B500EB
:102A1000892B09F43DCC0093070168EC70E080E05D
:102A200090E00E9474010E94FC0986329240ACF74B
:102A300081E00E949507811105C0809107018330D4
:102A40000CF41BC168EE73E080E090E00E9474011A
:102A50000093060180E00E949507813029F480915F
:102A6000060183300CF41FC168EE73E080E090E053
:102A70000E9474011092B6011092B50110920801E3
:102A80001092090146E0F42E83E0E82E90E1692ED1
:102A900027E0522E3AE0432E80910801811156C45E
:102AA0000E949D0881E10E94B500892B91F56CE29E
:102AB00071E080E090E00E94740181E10E94B50025
:102AC000892B39F56CE271E080E090E00E9474019E
:102AD00081E10E94B500892BE1F41093050180E0AB
:102AE0000E94EA06813029F48091050183300CF4BC
:102AF000F0C01093050180E00E943F06813029F468
:102B00008091050183300CF4FAC08092B2011092DA
:102B1000B1018091B001811120C08BE00E94B5000D
:102B2000892BD9F464EF71E080E090E00E94740199
:102B30008BE00E94B500892B81F464EF71E080E0A6
:102B400090E00E9474018BE00E94B500892B11F483
:102B50001093B0018DE40E94A2028091AF01811117
:102B600020C08CE00E94B500892BD9F464EF71E09D
:102B700080E090E00E9474018CE00E94B500892BF7
:102B800081F464EF71E080E090E00E9474018CE0D9
:102B90000E94B500892B11F41093AF018EE40E94BE
:102BA000A2028091AE01811120C08DE00E94B5008B
:102BB000892BD9F464EF71E080E090E00E94740109
:102BC0008DE00E94B500892B81F464EF71E080E014
:102BD00090E00E9474018DE00E94B500892B11F4F1
:102BE0001093AE018FE40E94A2028091B60181365B
:102BF00041F41092B6011092B5019092B201109377
:102C0000AD018091B601823641F41092B601109266
:102C1000B5017092B2011093AC018091B601833678
:102C200031F41092B6011092B501A092B2018091D8
:102C3000B601843621F41092B6011092B50190913C
:102C4000B001913009F071C08091AF01813009F07D
:102C50008DC39091B201911102C08093B201809115
:102C6000B201833011F4B092B2018091B20180318F
:102C700009F084C31093B20181C38F5F8093070171
:102C800068EE73E080E090E00E94740168EE73E00B
:102C900080E090E00E94740168EE73E080E090E0D4
:102CA0000E947401C5CE8F5F8093060168EE73E0C9
:102CB00080E090E00E94740168EE73E080E090E0B4
:102CC0000E94740168EE73E080E090E00E9474015D
:102CD000C1CE8F5F8093050168EE73E080E090E0E5
:102CE0000E94740168EE73E080E090E00E9474013D
:102CF00068EE73E080E090E00E947401F0CE8F5F98
:102D00008093050168EE73E080E090E00E9474011A
:102D100068EE73E080E090E00E94740168EE73E07A
:102D200080E090E00E947401E6CE911127C380916B
:102D3000AF01813009F022C38091AC0181111EC323
:102D4000B092B2011BC38F5F8093040168EE73E001
:102D500080E090E00E94740168EE73E080E090E013
:102D60000E94740168EE73E080E090E00E947401BC
:102D70001AC38091AA019091AB0101969093AB0187
:102D80008093AA011EC38091B201823089F583E647
:102D90000E94A2021092AB011092AA0110930401AA
:102DA00080E00E943F06813021F48091040183304D
:102DB0003CF08091A9018823C9F0F092B20118C0BB
:102DC0008F5F8093040168EE73E080E090E00E94E2
:102DD000740168EE73E080E090E00E94740168EE98
:102DE00073E080E090E00E947401DACFE092B201DB
:102DF0008091B201843009F06AC01093AC0164E69E
:102E000070E080E090E00E9474010E94FC0986322C
:102E100092400CF052C01093040181E00E94EA0637
:102E2000811104C08091040183308CF11092AB01B8
:102E30001092AA018091AA019091AB018C38910562
:102E400009F045C01092AB011092AA011093040141
:102E500080E00E94EA068130D1F580910401833040
:102E6000B4F58F5F8093040168EE73E080E090E03A
:102E70000E94740168EE73E080E090E00E947401AB
:102E800068EE73E080E090E00E947401E1CF8F5F14
:102E90008093040168EE73E080E090E00E9474018A
:102EA00068EE73E080E090E00E94740168EE73E0E9
:102EB00080E090E00E947401B0CF8091AA019091CF
:102EC000AB0101969093AB018093AA01B3CF80919F
:102ED000B2018530D1F487E60E94A2021092AB01C4
:102EE0001092AA011093040180E00E94EA0681304A
:102EF00029F48091040183300CF461C08091AD010C
:102F0000813009F072C0F092B2018091B201863036
:102F100031F48091AE01813011F45092B201809170
:102F2000B201873009F0E0C064E670E080E090E034
:102F30000E9474010E94FC09863292400CF070C01D
:102F40001093040181E00E949507811105C08091D2
:102F5000040183300CF44EC01092AB011092AA0110
:102F60008091AA019091AB018C38910509F062C063
:102F70001092AB011092AA011093040180E00E940C
:102F80009507813009F056C08091040183300CF020
:102F900051C08F5F8093040168EE73E080E090E0A1
:102FA0000E94740168EE73E080E090E00E9474017A
:102FB00068EE73E080E090E00E947401DFCF8F5FE5
:102FC0008093040168EE73E080E090E00E94740159
:102FD00068EE73E080E090E00E94740168EE73E0B8
:102FE00080E090E00E9474017FCF1093A90160926D
:102FF000B2018BCF8F5F8093040168EE73E080E0B5
:1030000090E00E94740168EE73E080E090E00E941E
:10301000740168EE73E080E090E00E94740192CF4A
:103020008091AA019091AB0101969093AB0180939E
:10303000AA0196CF8091A8018130D1F48091A60198
:103040009091A70101969093A7018093A60180918A
:10305000A6019091A701893C910554F01092A70117
:103060001092A6011092A80160E087E00E94DE00A5
:103070008091A5018130D1F48091A3019091A401A8
:1030800001969093A4018093A3018091A301909154
:10309000A401893C910554F01092A4011092A3015F
:1030A0001092A50160E086E00E94DE008091A201FE
:1030B0008130D1F48091A0019091A101019690936B
:1030C000A1018093A0018091A0019091A101893C70
:1030D000910554F01092A1011092A0011092A2014A
:1030E00060E085E00E94DE008091B201843109F049
:1030F00072C064E670E080E090E00E94740180910C
:103100009F0181110EC01093040181E00E94950778
:10311000811105C08091040183300CF4BFC010936D
:103120009F018091A8018130D1F48091A6019091F6
:10313000A70101969093A7018093A6018091A60113
:103140009091A701893C910554F01092A70110922B
:10315000A6011092A80160E087E00E94DE00809145
:10316000A5018130D1F48091A3019091A401019631
:103170009093A4018093A3018091A3019091A40155
:10318000893C910554F01092A4011092A301109271
:10319000A50160E086E00E94DE008091A2018130FE
:1031A000D1F48091A0019091A10101969093A10189
:1031B0008093A0018091A0019091A101893C91058B
:1031C00054F01092A1011092A0011092A20160E0AF
:1031D00085E00E94DE008091B201883009F03FC096
:1031E0008BE60E94A2021092AB011092AA0168EE37
:1031F00073E080E090E00E9474011093040180E08D
:103200000E949507813029F48091040183300CF4E9
:103210005BC01093040180E00E94EA06813029F42B
:103220008091040183300CF465C01093040180E0A8
:103230000E943F06813029F48091040183300CF410
:103240006FC060E087E00E94DE0060E086E00E94E0
:10325000DE0060E085E00E94DE004092B2018091D5
:10326000B2018A3009F018CC60E083E00E94DE00F1
:1032700068EE73E080E090E00E94740168EE73E015
:1032800080E090E00E94740168EE73E080E090E0DE
:103290000E9474018BE08093B201F6CB8F5F809324
:1032A000040168EE73E080E090E00E94740168EE33
:1032B00073E080E090E00E94740168EE73E080E0CB
:1032C00090E00E94740121CF8F5F8093040168EE2B
:1032D00073E080E090E00E94740168EE73E080E0AB
:1032E00090E00E94740168EE73E080E090E00E943C
:1032F000740185CF8F5F8093040168EE73E080E0F6
:1033000090E00E94740168EE73E080E090E00E941B
:10331000740168EE73E080E090E00E9474017BCF5E
:103320008F5F8093040168EE73E080E090E00E947C
:10333000740168EE73E080E090E00E94740168EE32
:1033400073E080E090E00E94740171CF80E090E033
:10335000892B11F40C9461100E941F02882311F430
:103360000C945F100E9400000C945F10811106C045
:103370008091AD01811102C09093B2013090B201F1
:10338000B1E03B1200CD3092AD0164E670E080E028
:1033900090E00E9474010E94FC09863292400CF079
:1033A000E8CC3092040181E00E943F06811105C003
:1033B0008091040183300CF4C6CC1092AB011092C2
:1033C000AA018091AA019091AB018C38910509F076
:1033D000DACC1092AB011092AA011093040180E0A4
:1033E0000E943F06813009F0CECC809104018330E9
:1033F0000CF0C9CC8F5F8093040168EE73E080E02D
:1034000090E00E94740168EE73E080E090E00E941A
:10341000740168EE73E080E090E00E947401DFCFF9
:10342000052E97FB1EF400940E94271A57FD07D023
:103430000E94421A07FC03D04EF40C94271A5095B0
:103440004095309521953F4F4F4F5F4F0895909590
:103450008095709561957F4F8F4F9F4F08950E9483
:10346000641AA59F900DB49F900DA49F800D911D8F
:1034700011240895B7FF0C942F1A0E942F1A821B53
:10348000930B0895A1E21A2EAA1BBB1BFD010DC0D0
:10349000AA1FBB1FEE1FFF1FA217B307E407F50704
:1034A00020F0A21BB30BE40BF50B661F771F881FE0
:1034B000991F1A9469F760957095809590959B0176
:1034C000AC01BD01CF010895A29FB001B39FC0011F
:1034D000A39F700D811D1124911DB29F700D811D40
:1034E0001124911D08950E94B51A08F481E00895F1
:1034F000E89409C097FB3EF490958095709561958E
:103500007F4F8F4F9F4F9923A9F0F92F96E9BB2743
:103510009395F695879577956795B795F111F8CFBF
:10352000FAF4BB0F11F460FF1BC06F5F7F4F8F4F2A
:103530009F4F16C0882311F096E911C0772321F020
:103540009EE8872F762F05C0662371F096E8862FB8
:1035500070E060E02AF09A95660F771F881FDAF70F
:10356000880F9695879597F90895990F0008550F3C
:10357000AA0BE0E8FEEF16161706E807F907C0F0F9
:1035800012161306E407F50798F0621B730B840B01
:10359000950B39F40A2661F0232B242B252B21F4DB
:1035A00008950A2609F4A140A6958FEF811D811D7B
:1035B00008950E94B51A08F48FEF08950E94F11A39
:1035C0000C94621B0E94541B38F00E945B1B20F07D
:1035D000952311F00C944B1B0C94511B11240C944B
:1035E000961B0E94731B70F3959FC1F3950F50E0DB
:1035F000551F629FF001729FBB27F00DB11D639FA5
:10360000AA27F00DB11DAA1F649F6627B00DA11D4A
:10361000661F829F2227B00DA11D621F739FB00DF0
:10362000A11D621F839FA00D611D221F749F332760
:10363000A00D611D231F849F600D211D822F762FF9
:103640006A2F11249F5750409AF0F1F088234AF0D6
:10365000EE0FFF1FBB1F661F771F881F9150504042
:10366000A9F79E3F510580F00C944B1B0C94961BC0
:103670005F3FE4F3983ED4F3869577956795B795C9
:10368000F795E7959F5FC1F7FE2B880F911D9695E3
:10369000879597F9089597F99F6780E870E060E053
:1036A00008959FEF80EC089500240A9416161706DB
:1036B00018060906089500240A9412161306140623
:1036C00005060895092E0394000C11F4882352F086
:1036D000BB0F40F4BF2B11F460FF04C06F5F7F4F3E
:1036E0008F4F9F4F089557FD9058440F551F59F025
:1036F0005F3F71F04795880F97FB991F61F09F3FDF
:1037000079F087950895121613061406551FF2CF07
:103710004695F1DF08C0161617061806991FF1CF57
:1037200086957105610508940895E894BB2766277E
:103730007727CB0197F90895991B79E004C0991F69
:10374000961708F0961B881F7A95C9F780950895FB
:10375000EE0FFF1F0590F491E02D0994F894FFCF30
:10376000B401B4010101010105010000000055028E
:10377000B501E201A7021302F101050200000000F9
:0E378000AA057D05D905530576056305540598
:107E0000112484B714BE81FFF0D085E080938100F7
:107E100082E08093C00088E18093C10086E0809377
:107E2000C20080E18093C4008EE0C9D0259A86E02C
:107E300020E33CEF91E0309385002093840096BBD3
:107E4000B09BFECF1D9AA8958150A9F7CC24DD24C4
:107E500088248394B5E0AB2EA1E19A2EF3E0BF2EE7
:107E6000A2D0813461F49FD0082FAFD0023811F036
:107E7000013811F484E001C083E08DD089C08234E0
:107E800011F484E103C0853419F485E0A6D080C0E4
:107E9000853579F488D0E82EFF2485D0082F10E0AE
:107EA000102F00270E291F29000F111F8ED06801E7
:107EB0006FC0863521F484E090D080E0DECF843638
:107EC00009F040C070D06FD0082F6DD080E0C81688
:107ED00080E7D80618F4F601B7BEE895C0E0D1E017
:107EE00062D089930C17E1F7F0E0CF16F0E7DF06D8
:107EF00018F0F601B7BEE89568D007B600FCFDCFD4
:107F0000A601A0E0B1E02C9130E011968C91119780
:107F100090E0982F8827822B932B1296FA010C0160
:107F200087BEE89511244E5F5F4FF1E0A038BF0790
:107F300051F7F601A7BEE89507B600FCFDCF97BE46
:107F4000E89526C08437B1F42ED02DD0F82E2BD052
:107F50003CD0F601EF2C8F010F5F1F4F84911BD097
:107F6000EA94F801C1F70894C11CD11CFA94CF0C13
:107F7000D11C0EC0853739F428D08EE10CD085E9AC
:107F80000AD08FE07ACF813511F488E018D01DD067
:107F900080E101D065CF982F8091C00085FFFCCF94
:107FA0009093C60008958091C00087FFFCCF809118
:107FB000C00084FD01C0A8958091C6000895E0E648
:107FC000F0E098E1908380830895EDDF803219F02E
:107FD00088E0F5DFFFCF84E1DECF1F93182FE3DFCA
:107FE0001150E9F7F2DF1F91089580E0E8DFEE27F6
:047FF000FF270994CA
:027FFE00040479
:00000001FF
